:020000040800F2
:10000000688C0020890D0008750B0008770B00082C
:100010007B0B00087F0B0008830B0008000000002A
:10002000000000000000000000000000870B000836
:10003000890B000800000000936E00089B0B00086D
:10004000A30D0008A30D0008A30D0008A30D0008D0
:10005000A30D0008A30D0008A30D0008A30D0008C0
:10006000A30D0008A30D0008A30D0008A30D0008B0
:10007000A30D0008A30D0008A30D0008A30D0008A0
:10008000A30D0008A30D0008A30D0008A30D000890
:10009000A30D0008A30D0008A30D0008A30D000880
:1000A000A30D0008A30D0008A30D0008A30D000870
:1000B000A30D0008A30D0008A30D0008A30D000860
:1000C000A30D0008A30D0008A30D0008A30D000850
:1000D000A30D00088B310008A30D0008A30D000834
:1000E000A30D0008A30D0008A30D0008A30D000830
:1000F000A30D0008A30D0008A30D0008A30D000820
:10010000A30D0008A30D0008A30D0008A30D00080F
:10011000A30D0008A30D0008A30D0008A30D0008FF
:10012000A30D0008A30D0008A30D0008A30D0008EF
:1001300000F002F800F0B0F80AA090E8000C824449
:100140008344AAF10107DA4501D100F0A5F8AFF226
:10015000090EBAE80F0013F0010F18BFFB1A43F0A5
:10016000010318470C9401002C9401000A444FF03D
:10017000000C10F8013B13F0070408BF10F8014B06
:100180001D1108BF10F8015B641E05D010F8016B4B
:10019000641E01F8016BF9D113F0080F1EBF10F8AF
:1001A000014BAD1C0C1B09D16D1E58BF01F801CBD2
:1001B000FAD505E014F8016B01F8016B6D1EF9D555
:1001C0009142D6D37047000000230024002500266A
:1001D000103A28BF78C1FBD8520728BF30C148BFAA
:1001E0000B6070476E290FF08987702910F0C68068
:1001F000662912F09081652912F08D81672912F02D
:100200008A816129AFF3008003681B0A28BF41F08F
:10021000800169290FF0368764290FF0338775292B
:100220000FF030876F2910F05180782910F09280FC
:10023000E9290FF0E987E4290FF0E687F5290FF0A7
:10024000E387EF2910F04E80F82910F091800368C1
:10025000DB0928BF41F08001632910F099847329DC
:1002600010F09E84E32910F0A984F32910F0AE84E5
:10027000002070471FB510F003FD0400002000218E
:1002800011F00EFA401C60600020002111F0F2F91C
:10029000E0601FBD10B510BD10F0C4FC1146FFF7A3
:1002A000E9FF00F034FC10F0A1FD03B4FFF7F2FF0A
:1002B00003BC02F00DFF0000002400BF2EE0642309
:1002C00000221146104606F0F7FC601C84B242F290
:1002D0001070844200DB0024FE48007801281DD104
:1002E000142094FBF0F100FB11400A280BDA40F6D1
:1002F0000801F948B0F900000DF02DFE0546F7A100
:100300000BF01FFF0AE040F60801F348B0F90000C7
:100310000DF021FE0546F3A10BF013FFCFE7F249E4
:1003200009684FF47A7291FBF2F130310170EE49B5
:10033000096891FBF2F302FB1311642291FBF2F1C5
:1003400030314170E84909684FF47A7291FBF2F359
:1003500002FB1311642291FBF2F302FB13110A2238
:1003600091FBF2F130318170DF4909684FF47A7204
:1003700091FBF2F302FB1311642291FBF2F302FBF7
:1003800013110A2291FBF2F302FB13113031C170F9
:10039000D64909684FF47A7291FBF2F1303101715C
:1003A000D249096891FBF2F302FB1311642291FB1D
:1003B000F2F130314171CD4909684FF47A7291FB05
:1003C000F2F302FB1311642291FBF2F302FB13110F
:1003D0000A2291FBF2F130318171C44909684FF46E
:1003E0007A7291FBF2F302FB1311642291FBF2F398
:1003F00002FB13110A2291FBF2F302FB13113031BD
:10040000C1710A2101727047002600BF00BF36E0AB
:10041000B748008810F4004F1DD0B5480578B5A046
:100420000FF05AFC00240DE0B648015DB64803F019
:100430001DFC00BF4021B44803F086FC0128F9D11F
:10044000601CC4B2AC42EFDBB0A00FF045FC002052
:10045000A749088013E0701C86B2AE48FFF75FFF23
:10046000C82096FBF0F100FB116010B9A9480FF00D
:1004700027FC0A2300221146104606F01DFCC7E7A0
:1004800010B504220CE00A2390FBF3F403FB1403E1
:100490003033DCB2531ECC540A2390FBF3F0521ECF
:1004A000002AF0DCCB780B718B78CB702E238B700D
:1004B00020234B7143238B7110BD002400BF1EE02D
:1004C000002C06DA0A2300221146104606F0F4FB3F
:1004D0000FE0914985480068FFF7D2FF40F604011C
:1004E0007D48B0F900000DF036FD05468A490BF055
:1004F00028FE642300221146104606F0DDFBDFE7EC
:1005000010B5044600BF1623844A0021AFF25500FF
:1005100006F03AF8152006F0EDF810BD1FB500BF43
:1005200052E04FF41671012002F0EDFC834658466C
:1005300011F09CFE019011F0F5FC4FF06632784B03
:10054000CDE9020111F0D4FA07460022754B11F0F3
:10055000FBF8054611F0BAF804467349204611F03D
:1005600099FE0546714911F06BFD81464FF08141BE
:10057000484611F05BFF06466D4911F08BFE0546BB
:100580004FF0834111F05CFD82466A49504611F0FC
:1005900081FE054611F016FE534908605E49524837
:1005A0000068FFF76DFF40F602014B48B0F900000C
:1005B0000DF0D1FC054658490BF0C3FD6423002221
:1005C0001146104606F078FBABE710B5044600BFB5
:1005D00000F039FA404908800E2006F0A9FA10BD53
:1005E00008B50020009000BF23E0002000F042FC8E
:1005F00000909DF80000032807D09DF80000012816
:1006000003D09DF80000022805D169464A480068D9
:1006100004F0F1FF07E09DF80000042803D14748EB
:10062000006805F076FE0A2300221146104606F007
:1006300043FBDAE700BF09E008F023F907F0DEFB2F
:100640000A2300221146104606F036FBF4E708B5EF
:1006500000BF1DE06A460A213748006804F0FFFE2B
:1006600004469DF8000068B92078012805D00328C9
:1006700007D1012000F0B5FB03E0002000F0B1FB42
:1006800000BF00BF0A2300221146104606F014FBEB
:10069000E0E710B5044600BF002004F043FE264901
:1006A0000860022005F0D9FC244908600A23244A86
:1006B0000021AFF2650005F067FF1123214A0021F8
:1006C000AFF28F0005F060FF0F231F4A0021AFF249
:1006D000EF003BE01200002010000020686561740C
:1006E000696E670000000000080000200C00002078
:1006F000680000200D0A3F3F3F3F3F3F3F3A0D0A51
:100700000D0A0000AE340020003801400D0A0D0A29
:1007100000000000360200202C0200207C21002076
:1007200066660A400000B04000007A4400001643AC
:100730000000F0420000C842000000200400002039
:100740007C080020BC0E0020DC11002005F01CFFFE
:100750000E23214A0021AFF28D1005F015FF14235E
:100760001E4A0021AFF24B2005F00EFF15231C4A54
:100770000021AFF2732005F007FF1723194A00216B
:10078000AFF27B3005F000FF1323174A0021AFF2D0
:10079000D74005F0F9FE192006F0CAF910BD08B5DA
:1007A00000BF17E06A4600211048006805F0F2FC1F
:1007B000002000F009FB002301221946184606F02C
:1007C0007BFA012000F000FB0023012219461846A5
:1007D00006F072FAE6E70000FC1400201C18002066
:1007E0003C1B00205C1E00207C2100200400002017
:1007F0002DE9F041044620681E2802D026287DD12C
:10080000C8E0B4F9040040F602010DF0A4FB07466D
:100810000E2138460BF0ACFC934938460BF07FFCB8
:10082000924938460BF05FFC4FF47F0138460BF0DD
:10083000B2FC8FA138460BF084FCB4F9040040F6FA
:1008400004010DF088FB07460E2138460BF090FCA2
:10085000854938460BF063FC844938460BF043FC6D
:100860004FF47F0138460BF096FC83A138460BF01D
:1008700068FCB4F9040040F605010DF06CFB074676
:100880000E2138460BF074FC7D4938460BF047FCCE
:10089000764938460BF027FC4FF47F0138460BF0C1
:1008A0007AFC78A138460BF04CFCB4F9040040F611
:1008B00006010DF050FB07460E2138460BF058FCA0
:1008C0006F4938460BF02BFC684938460BF00BFC9F
:1008D0004FF47F0138460BF05EFC6CA138460BF0FC
:1008E00030FCB4F9040040F607010DF034FB074674
:1008F0000E2138460BF03CFC614900E09CE0384694
:100900000BF00DFC594938460BF0EDFB4FF47F011D
:1009100038460BF040FC60A138460BF012FCB4F9ED
:10092000040040F608010DF016FB07460E2138467C
:100930000BF01EFC4C4938460BF0F1FB4B49384696
:100940000BF0D1FB4FF47F0138460BF024FC54A18F
:1009500038460BF0F6FBB4F9040040F609010DF03F
:10096000FAFA0746464938460AF075FD4EA1384660
:100970000AF05AFDB4F9040040F60A010DF0EBFA52
:1009800007463F4938460AF066FD49A138460AF055
:100990004BFD55E0B4F906000DF0FBFA0546A668DC
:1009A000A5F50060093802D0012843D120E0012ECE
:1009B00002D0022E1AD118E0012002F000FB002024
:1009C00000F002FA01203C490870B4F9040040F636
:1009D00008010DF0C0FA0746FF2138460BF0DBFB9B
:1009E00036A138460BF0ADFB00E000BF00BF21E0B0
:1009F000012E02D0022E1BD119E0002002F0DFFAF6
:100A0000012000F0E1F900202B490870B4F904003E
:100A100040F608010DF09FFA07464FF47F01384673
:100A20000BF0B9FB22A138460BF08BFB00E000BFB6
:100A300000BF00BF00BF03E020460CF01BFF00BF5B
:100A400000BFBDE8F0817CB50DF05AFA05460020E4
:100A500000902B461B4A092101901B480AF0B7FD64
:100A6000044620467CBD0000589301088080800029
:100A700070743130303000006473313862323000CD
:100A8000B47401087074313030303A006473313816
:100A90006232303A0000000073746174653A0000FD
:100AA00053544F50000000007374617274000000D2
:100AB00073746F700000000012000020686561749C
:100AC000696E6700F1070008802F010830B52348E0
:100AD000B0F1807F00D319E0411E4FF0E022516158
:100AE00051170F22002906DA13011D4C01F00F05E2
:100AF0002D1F635502E013011A4C635400BF0021FF
:100B00004FF0E02291610721116100BF30BD10B5A7
:100B100002F0D8FA00F072F9FFF7D8FF00F090F970
:100B200002F05CFA09F09BFB02F0D6F80E49086867
:100B3000804702F08FF94FF4165002F0D7FA02F016
:100B40002BFA04F0B2F81923084A0021084805F0EE
:100B50001BFD04F0CCF9002010BD0000401901007D
:100B600018ED00E000E400E0300000205C0500200B
:100B700093060008704700BFFEE700BFFEE700BF16
:100B8000FEE700BFFEE77047704710B504F0A3F81A
:100B900004F0E4F904F0BAF810BD10B504F09BF8C5
:100BA00004F0DCF904F0B2F810BD00000CB5002030
:100BB000019000906B48006840F4803069490860FB
:100BC00000BF6848006800F4003000900198401CA5
:100BD0000190009818B90198B0F5A06FF1D1614863
:100BE000006810F4003F02D00120009001E00020D6
:100BF00000900098012842D15B48006840F0100046
:100C0000594908600846006820F00300086008465B
:100C1000006840F00200086052484068514948604E
:100C20000846406848600846406840F48060486074
:100C30000846406820F47C1048600846406840F44C
:100C4000E81048600846006840F08070086000BF07
:100C50004448006810F0007FFAD04248406820F015
:100C60000300404948600846406840F00200486080
:100C700000BF3C48406800F00C000828F9D10CBDCA
:100C800010B5FFF793FF10BD10B53648006840F06F
:100C90000100344908600846406834490840314939
:100CA000486008460068324908402E4908600846F6
:100CB000006820F4802008600846406820F4FE00A8
:100CC00048604FF41F008860FFF7DAFF4FF00060C4
:100CD0002849086010BD10B5002100200022214BDA
:100CE0005B6803F00C0121B1042906D0082928D142
:100CF00007E0214B214C236027E01F4B1F4C236052
:100D000023E0184B5B6803F47010164B5B6803F428
:100D10008032022303EB904022B9194B4343174C16
:100D200023600DE00F4B5B6813F4003F04D0144BBD
:100D30004343124C236003E00F4B43430F4C2360AB
:100D400003E00D4B0D4C236000BF00BF054B5B68FB
:100D5000C3F303130B4CE15C084B1B68CB40074CFF
:100D6000236010BD00100240002002400000FFF888
:100D7000FFFFF6FE08ED00E000127A0014000020EC
:100D800000093D0018000020094880470948004735
:100D9000FEE7FEE7FEE7FEE7FEE7FEE7FEE7FEE72B
:100DA000FEE7FEE704480549054A064B7047000088
:100DB000890C00083101000868860020688C00203A
:100DC000688800206888002010B5044624B92021D6
:100DD000194802F09EFB03E02021174802F097FB20
:100DE00010BD10B5044624B92021144802F091FB2F
:100DF00003E02021114802F08AFB10BD08B5102045
:100E00008DF803002020ADF8000003208DF80200CB
:100E10000121482002F086FD6946084802F0CCFA1C
:100E20006946054802F0C8FA0120FFF7DAFF012001
:100E3000FFF7CAFF08BD000000180140000C014088
:100E400008B50121442002F06DFD1C20ADF8000022
:100E500048208DF803006946374802F0ADFA0120BA
:100E6000ADF8000028208DF803006946334802F0F1
:100E7000A3FA08BD10B5044614B10120304908702A
:100E80002F48007800283AD010212B4802F025FB8B
:100E900078B10821284802F020FB50B104212648EF
:100EA00002F01BFB28B10121244802F016FB0128A7
:100EB00025D10A2300221146104605F0FDFE002030
:100EC0001F49087010211C4802F007FB08B90120D7
:100ED00010BD0821184802F000FB08B90220F7E70E
:100EE0000421154802F0F9FA08B90320F0E70121BE
:100EF000124802F0F2FA01281BD10420E8E7102181
:100F00000D4802F0EAFA012813D108210A4802F03C
:100F1000E4FA01280DD10421074802F0DEFA012885
:100F200007D10121054802F0D8FA10B9012004497F
:100F300008700020CCE700000018014000080140C4
:100F40002800002000BF0100A0F10102D0B2FAD1B8
:100F50007047FE48C079FE4908807047FC49891CEB
:100F600008807047FA490880704700B502460B4672
:100F7000F649087AFFF7F6FF1012FFF7EFFFD0B23D
:100F8000FFF7ECFFF149487AFFF7ECFF1812FFF783
:100F9000E5FFD8B2FFF7E2FF00BD70B504460026BA
:100FA000EA4805884088454300210846FFF7DDFFF1
:100FB000FFF7CFFF00BF03E0E548801C0480761CEC
:100FC000AE42F9D370BDE24A1080921C1180704786
:100FD000F0B5064600240027082E1CD2DFE806F0F4
:100FE0000406090C0F12151800BF14E044F0800429
:100FF00011E044F040040EE044F0C0040BE044F083
:10100000200408E044F0600405E044F0A00402E09D
:1010100044F0E00400BF00BF362744F0080444F069
:10102000020421463846FFF7CEFF14F0200F0DD002
:10103000C6480088C5494988884214DAC3480588EB
:101040004088C2490880084645800CE0BF480088B7
:10105000BE494988884206DDBC4805884088BB49AE
:10106000088008464580B949087AFFF77BFF0020D1
:10107000FFF774FF0020FFF771FFB4490988491E8C
:10108000C1F30F20FFF76AFFB0490978491EC8B2C3
:10109000FFF764FFAD49487AFFF764FF0020FFF7D0
:1010A0005DFF0020FFF75AFFA8494988491EC1F398
:1010B0000F20FFF753FFA5498978491EC8B2FFF7F3
:1010C0004DFFF0BDA248801C0088704700B59FB05E
:1010D000012140F2691002F025FC0121080202F012
:1010E00014FC10208DF87B000120ADF8780003205F
:1010F0008DF87A001EA9974802F05EF918208DF845
:101100007B004CF23370ADF8780003208DF87A0044
:101110001EA9914802F050F918208DF87B004FF677
:101120008070ADF8780003208DF87A001EA98B48F6
:1011300002F042F918208DF87B0041F20100ADF871
:10114000780003208DF87A001EA9854802F034F952
:1011500001200890002009900F200A9000200B9099
:101160000C900D900E900790019002900320039038
:10117000002004900590069006200F90002010900B
:10118000119010201290002013901490159016903A
:1011900017904FF480501890002019901B904FF436
:1011A00080401A9008A81C9001A81D900FA802F07A
:1011B00074FE0121062002F0D1FFBF20FFF7D2FE0E
:1011C000FFF780FFFFF77EFFFFF77CFFFFF77AFF57
:1011D0005E498880084680884FF6FF7101EA00204A
:1011E0005A498880FFF76EFF584989880843574954
:1011F00088801120FFF7B6FE142001F038FFD020C0
:10120000FFF7B0FE0720FFF7A9FE4220FFF7A6FE7A
:101210001D20FFF7A3FED120FFF7A4FE0020FFF75B
:101220009DFE1A20FFF79AFE0920FFF797FED220B5
:10123000FFF798FE0120FFF791FE2220FFF78EFEB8
:10124000C020FFF78FFE1020FFF788FE3B20FFF73E
:1012500085FE0020FFF782FE0220FFF77FFE1120AF
:10126000FFF77CFEC520FFF77DFE0320FFF776FE2B
:10127000C820FFF777FE0020FFF770FE2520FFF75C
:101280006DFE2120FFF76AFE0520FFF767FE0020B4
:10129000FFF764FE0A20FFF761FE6520FFF75EFEA0
:1012A0002520FFF75BFE7720FFF758FE5020FFF761
:1012B00055FE0F20FFF752FE0020FFF74FFEF820EB
:1012C000FFF750FE0120FFF749FEFE20FFF74AFE20
:1012D0000020FFF743FE0220FFF740FE2020FFF72B
:1012E00041FE3620FFF73EFE0820FFF737FE3A208A
:1012F000FFF738FE5520FFF731FE2B20FFF732FEB7
:101300000020FFF72BFE0020FFF728FE0120FFF74B
:1013100025FE3F20FFF722FE2A20FFF723FE0020B4
:10132000FFF71CFE0020FFF719FE0120FFF716FE55
:10133000DF20FFF713FE782001F099FE2920FFF748
:1013400011FE0020014988712C200BE04034002060
:10135000FE07006C000C0140001401400018014021
:1013600000200140C8712A2008722B2048724FF4D7
:10137000F07048804FF4A07008800020FFF728FE2E
:101380000121F84802F0C3F84FF6FF70FFF705FEA1
:101390001FB000BD10B504462046FFF7E3FD052051
:1013A00001F042FEFFF78EFE10BDEF490880704746
:1013B00000B52920FFF7D6FD00BD00B52820FFF7B6
:1013C000D1FD00BD70B505460E461446314628468F
:1013D000FFF7CBFDFFF7BDFD2046FFF7BFFD70BD5A
:1013E0002DE9F04F04460D4690469946DDF824A0BD
:1013F000A9EB0500401C86B2A8EB0400401C1FFAB4
:1014000080FB29462046FFF7B0FDFFF7A2FD10E064
:101410005F460AE07219521E91B23A19521E90B2FA
:101420005246FFF7CFFF781E87B2002FF2DC701E06
:1014300086B2002EECDCBDE8F08F2DE9FF4F84B0C2
:1014400081468A460020029083460698A0EB090553
:101450000798A0EB0A06CDF80490CDF800A0002D67
:1014600001DD012705E00DB9002702E04FF0FF374D
:101470006D42002E02DD4FF0010806E016B94FF074
:10148000000802E04FF0FF387642B54201DD2C46FD
:1014900000E03446002003901EE0009A91B2019AC9
:1014A00090B2119AFFF78EFF029828440290B3443D
:1014B0000298A04205DD0298001B02900198384472
:1014C0000190A34504DDABEB040B00984044009071
:1014D0000398401C80B20390611C03988842DCDDB5
:1014E00008B0BDE8F08F2DE9F04706460F4690465C
:1014F0009A46002445460320A0EB480944E07A1BA5
:1015000091B2321990B25246FFF75CFF3A1B91B28A
:10151000721990B25246FFF755FF3A1991B27219FB
:1015200090B25246FFF74EFF7A1991B2321990B23B
:101530005246FFF747FF7A1991B2321B90B25246DA
:10154000FFF740FF3A1991B2721B90B25246FFF773
:1015500039FF7A1B91B2321B90B25246FFF732FF2D
:101560003A1B91B2721B90B25246FFF72BFF641CDC
:10157000B9F1000F03DAA000801D814404E0601B74
:1015800080000A3081446D1EAC42B8DDBDE8F087B2
:101590002DE9F84F05460F4690461E4600977348C2
:1015A000B0F80090A8F1200000F0FF080A98002889
:1015B00050D100244BE00C2E07D108EB48006C49B9
:1015C00001EB800010F804A004E06A4800EB08106A
:1015D00010F804A04FF0000B33E01AF0800F03D096
:1015E0006248A0F8009003E0634800885F490880E3
:1015F0005E48028839462846FFF7E4FE4FEA4A6013
:101600004FEA106A781C87B25C480088A84204DC64
:101610005648A0F80090BDE8F88F0098381AB042FC
:101620000BD1009F681C85B254480088A84203DC97
:101630004E48A0F80090EEE706E00BF1010000F044
:10164000FF0BBBF1080FC8DB00BF601CC4B2B44283
:10165000B1DB46E0002442E00C2E07D108EB480045
:10166000434901EB800010F804A004E0414800EB7E
:10167000081010F804A04FF0000B2AE01AF0800FB9
:1016800005D03A48028839462846FFF79BFE4FEAC4
:101690004A604FEA106A781C87B238484088A842EE
:1016A00003DC3248A0F80090B5E70098381AB04241
:1016B0000BD1009F681C85B230480088A84203DC2B
:1016C0002A48A0F80090A6E706E00BF1010000F020
:1016D000FF0BBBF1080FD1DB00BF601CC4B2B442EA
:1016E000BADB2248A0F8009000BF94E710B502468C
:1016F000012000E050430B00A1F10104E1B2F9D157
:1017000010BD2DE9FF4F81B0074691461E460E9D44
:101710004FF0000A002448E0301B401EC1B20A20EE
:10172000FFF7E4FFB9FBF0F00A21B0FBF1F201FB97
:101730001208BAF1000F25D1701EA04222DDB8F1C7
:10174000000F1DD10020AB4605EBDB71491001FBFA
:101750000471009088B22B4620220299FFF718FFEF
:1017600021E00000000C01400008006C2A0000206D
:1017700058300108CC3401082C00002040340020EF
:101780004FF0010A0020AB4605EBDB71491001FB6D
:101790000471009088B208F13001CAB22B46029958
:1017A000FFF7F6FE00BF601CC4B2B442B4DB05B064
:1017B000BDE8F08F2DE9FF4F82B0064692461F46E6
:1017C000DDE90F480020019000254DE0781B401E08
:1017D000C1B20A20FFF78AFFBAFBF0F00A21B0FB82
:1017E000F1F201FB1209019850BB781EA84227DDD7
:1017F000B9F1000F22D118F0800F0FD008F00100CE
:10180000A34604EBDB71491001FB0561009088B22F
:10181000234630220399FFF7BBFE0EE008F00100DB
:10182000A34604EBDB71491001FB0561009088B20F
:10183000234620220399FFF7ABFE13E0012001901D
:1018400008F00100A34604EBDB71491001FB0561C0
:10185000009088B209F13001CAB223460399FFF71C
:1018600097FE00BF681CC5B2BD42AFDB06B0BDE845
:10187000F08F2DE9F84704460D4690469946DDE97C
:10188000096704F0FF0A08EB04001FFA80F809EB6F
:1018900005001FFA80F916E0444502DB5446A819FA
:1018A00085B24D4500DB14E0002000903A783346C5
:1018B00029462046FFF76CFE304606EBD07104EB5C
:1018C00061018CB27F1C38787E2802DC38782028B1
:1018D000E2DA00BFBDE8F8871CB5044610200346D5
:1018E000C8221146CDE900043C20FFF7C2FF1CBD11
:1018F00030B5014601F01F04C1F34513CA0AE502E1
:1019000005EB43151544A8B230BD2DE9F04105465D
:101910000E4600240027A04671480088A84203DD37
:101920006F484088B04202DC0020BDE8F0813146BB
:101930002846FFF71AFB6A488088A0F51341413911
:1019400005D067488088A0F5D041043903D12E2006
:10195000FFF708FB02E02220FFF704FB60488088C5
:10196000A0F51341203902D10220FFF7EBFA5D48C0
:10197000008800B100240220FFF7E4FA59480488E7
:1019800057488088A0F5134141390BD10220FFF759
:10199000D9FA5448B0F80080E7B24FF6FF7000EA79
:1019A000072707E04E488088A0F5D041043901D1CF
:1019B0004C4804884A488088A0F51341253917D03F
:1019C00047488088A0F58A41353911D0444880883D
:1019D000A0F58A4131390BD041488088A0F50941F2
:1019E000893905D03E488088A0F53541053901D1B7
:1019F00020469AE73A488088A0F51341413907D13B
:101A0000E012C002B91240EA411040EAE8208CE737
:101A10002046FFF76DFF88E72DE9F04706460F46A1
:101A200090469A46002445460320A0EB480952E020
:101A30003A1B91B2721B90B25246FFF7C3FC3A1B9D
:101A400091B2721990B25246FFF7BCFC7A1991B26A
:101A5000321B90B25246FFF7B5FC3A1B91B2721B93
:101A600090B25246FFF7AEFC7A1B91B2321B90B295
:101A70005246FFF7A7FC3A1991B2721990B252463A
:101A8000FFF7A0FC7A1B91B2321990B25246FFF7D1
:101A900099FC7A1991B2321990B25246FFF792FC32
:101AA0003A1991B2721B90B25246FFF78BFC641C3C
:101AB000B9F1000F03DAA000801D814404E0601B2F
:101AC00080000A3081446D1E7A1991B2321990B2A9
:101AD0005246FFF777FCAC42AADDBDE8F087000074
:101AE000403400200008006C08B50121082001F0F6
:101AF00019FF4FF44060ADF8000010208DF803008E
:101B000003208DF802006946944801F055FC4FF41B
:101B10004061924801F0FBFC012091490860914925
:101B2000C1F8AC0108BD10B58C48001D006820F458
:101B300070408A49091D08600846006840F440501A
:101B400008600120884908608649C1F8A8014FF063
:101B5000040001F069FA0020834908604FF0040096
:101B600001F062FA00207F49C1F8A80110BD10B54C
:101B70007A48001D006820F470407849091D08600B
:101B80000846006840F4405008600020744908602E
:101B90007449C1F8AC014FF0040001F045FA01208E
:101BA0006F4908606F49C1F8AC014FF0040001F0C3
:101BB0003BFA10BD10B500246848001D006820F4F1
:101BC00070406649091D08600846006840F40040FE
:101BD000086001206449086001F026FA012061498B
:101BE000C1F8A80101F020FA07E0601CC4B2FA2C89
:101BF00003DDFFF7BCFF012010BD5C480068002832
:101C0000F3D15749086000BFF6E710B500205449EA
:101C100008605748006820F470405549086008463D
:101C2000006840F4405008604FF000004D49C1F892
:101C3000AC014FF0020001F0F7F9012048490860BB
:101C40004FF0020001F0F0F900204649C1F8A80168
:101C500010BD10B50020424908604548006820F4D6
:101C60007040434908600846006840F440500860EE
:101C70004FF001003B49C1F8AC014FF0020001F008
:101C8000D3F90120364908604FF0020001F0CCF989
:101C900000203449C1F8A80110BD70B5044634488D
:101CA000006820F47040324908600846006840F43B
:101CB0004050086000202A49086005461AE0E00903
:101CC000294908604FEA44604FEA10644FF002006F
:101CD00001F0AAF901202349C1F8A801022001F06E
:101CE000A3F900201E4908604FF0020001F09CF9A2
:101CF000681CC5B2082DE2DB70BD70B50546002436
:101D00001B48006820F470401949086008460068C4
:101D100040F400400860002616E0002010490860EA
:101D20004FF0020001F080F901200E49C1F8A8012E
:101D30006006040E0D48006808B1601CC4B20120A2
:101D400001F072F9701CC6B2082EE6DB15B9FFF778
:101D500080FF01E0FFF759FF204670BD000C0140F5
:101D6000A881214200802142AC8121422C81214264
:101D7000040C0140002100BF19E010F0800F03D0D7
:101D80000122FE4B1A6002E00022FC4B1A604FEA6F
:101D900040624FEA12604FF00002F94B1A604FF0B8
:101DA0000102F84BC3F8842101F10102D1B20829E4
:101DB000E3DB704770B50646002500240020F0499B
:101DC0000860F149C1F8A401F04908603046FFF706
:101DD000D1FF062001F028F90020EA49C1F884016A
:101DE000012001F021F90120E54908604FF00000D1
:101DF000E449C1F8840100BF12E04FF6FF7000EA29
:101E000044040020DE4908604FF00100DD49C1F8BC
:101E10008401DF48006808B1601C84B2681CC5B248
:101E2000102DEADB24110120D8490860204670BD3E
:101E30002DE9FE4380460027002406E04046FFF7D8
:101E4000B9FF2DF81400601C84B2052CF6DB0024C9
:101E500016E0601C85B20FE03DF814003DF8151047
:101E6000884207DD3DF814603DF815002DF8140098
:101E70002DF81560681C85B2052DEDDB601C84B261
:101E8000042CE6DB0027012405E03DF8140038446B
:101E900087B2601C84B2042CF7DB032097FBF0F0C0
:101EA00086B23046BDE8FE832DE9F04104460D467A
:101EB000B8480078FFF7BCFF0646B7480078FFF740
:101EC000B7FF074626802F800120BDE8F0817FB54F
:101ED00004460D4602A903A8FFF7E6FF064616B919
:101EE000002004B070BD694601A8FFF7DDFF06467B
:101EF0000EB90020F5E7BDF80400BDF80C108842CB
:101F000006DCBDF80C10BDF80400323081420CDB59
:101F1000BDF80C00BDF80410884236DCBDF8041092
:101F2000BDF80C00323081422FDABDF80000BDF858
:101F30000810884206DCBDF80810BDF800003230F9
:101F400081420CDBBDF80800BDF8001088421CDCA3
:101F5000BDF80010BDF808003230814215DABDF836
:101F60000C10BDF80420881800EBD071C1F34F01AC
:101F70002180BDF80810BDF80020881800EBD07152
:101F8000C1F34F0129800120ABE70020A9E7F8B594
:101F900004460D46164604F10D018AB2193988B27D
:101FA0002B4629460096FFF748FA05F10D0083B24B
:101FB000193881B2224620460096FFF73EFA6A1C85
:101FC00091B2621C90B23246FFF7FCF96A1C91B2E2
:101FD000621E90B23246FFF7F5F96A1E91B2621C9A
:101FE00090B23246FFF7EEF96A1E91B2621E90B2CD
:101FF0003246FFF7E7F93346062229462046FFF727
:1020000072FAF8BD70B504460D46164632462946AA
:102010002046FFF7D7F9611C88B232462946FFF700
:10202000D1F9681C81B232462046FFF7CBF96A1C11
:1020300091B2621C90B23246FFF7C4F970BD2DE92F
:10204000F041044655480068002853D124B1544952
:10205000881EFFF73CFF3CE05149881EFFF737FF21
:10206000B8B34F491239B1F9200010F0E7F807462C
:102070004B491239088A10F0F9F88046484812385E
:102080008169404610F006F9064639460FF076FFA2
:10209000054610F0B3F8424912390882B1F922001E
:1020A00010F0CCF807463E491239488A10F0DEF8A5
:1020B00080463B481238C169404610F0EBF80646AE
:1020C00039460FF05BFF054610F098F83449123995
:1020D000488233481238007D10F0800F22D1C02092
:1020E0002F49123908750846008A88810846408AB7
:1020F000C88117E02A481238007D10F0800F08D000
:1021000027481238007D20F08000254912390875D3
:1021100008E00020224912398881C8814FF6FF70FB
:10212000088248821E481238007D00F08000BDE819
:10213000F08170B51A49123988691A4910F0AAF865
:10214000054610F03FF8044604222146282000F0FE
:102150001BFE13491239C869124910F09BF8054655
:1021600010F030F80446042221462C2000F00CFE2A
:102170000B481238B0F92010022215E0A481234246
:1021800084812142008021420080234288812142B3
:10219000208123425800002059000020288123423A
:1021A0004200002020BCBE4C302000F0EDFDF9487C
:1021B000B0F922100222322000F0E6FDF54890F836
:1021C0002410342000F0B8FD0A242146352000F008
:1021D000B3FD70BD70B5352000F082FD04460A2CB9
:1021E00042D10421282000F0E4FD0446204610F0EE
:1021F00025F80546E8490FF023FFE64988610421E8
:102200002C2000F0D6FD0446204610F017F80546B5
:10221000E1490FF015FFDF49C8610221302000F0CD
:10222000C8FD00B2DB4908840221322000F0C1FD64
:1022300000B2D8494884342000F052FDD54981F8D5
:102240002400084690F8240030B19020D34908704B
:10225000D020D349087005E0D020D04908709020E4
:10226000CF490870012070BD0020FCE72DE9FC5F1C
:1022700004460D4617461E46DDE90EABDDE90C8926
:102280004FF47840C7490880C7A01021CDE900105D
:10229000C64843880288A0212820FFF7EAFAC4A094
:1022A0001021CDE90010C14843880288A021782080
:1022B000FFF7DFFABFA01021CDE90010BB4843882B
:1022C0000288B4212820FFF7D4FABBA01021CDE961
:1022D0000010B64843880288B4217820FFF7C9FA75
:1022E000B6A01021CDE90010B04843880288C8216B
:1022F0002820FFF7BEFAB2A01021CDE90010AB48AC
:1023000043880288C8217820FFF7B3FAADA01021D6
:10231000CDE90010A54843880288DC212820FFF77A
:10232000A8FAA9A01021CDE90010A048438802888E
:10233000DC217820FFF79DFAA4A01021CDE9001040
:102340009A4843880288F0212820FFF792FA10204B
:1023500004232246A02100904020FFF7D2F910204C
:1023600004232A46A02100909020FFF7CAF91020EC
:1023700004233A46B42100904020FFF7C2F9102010
:1023800004233246B42100909020FFF7BAF91020C0
:1023900004234246C82100904020FFF7B2F91020E4
:1023A00004234A46C82100909020FFF7AAF9102084
:1023B00004235246DC2100904020FFF7A2F91020B0
:1023C00004235A46DC2100909020FFF79AF9102050
:1023D00000907648018803236020109AFFF791F956
:1023E000BDE8FC9F00B595B0002010900A901090B9
:1023F0001F206C4908804FF6FF7076490880FEF771
:10240000CCFD4FF47840674908804FF6FF70FEF727
:10241000C4FD0020634908806F48006810216423D0
:10242000A022CDE9001028210846FFF722FA4FF438
:10243000784214210846FFF7AAFD00205549087587
:102440008861DAE353484068099001200999884778
:102450005048007D00F0C000402878D100200A904C
:102460004C48007D20F040004A4908750846018A22
:1024700011AA109822F820104648418A109802EBC1
:10248000800041801098401CC0B210901098012824
:1024900006D0022815D0032829D0042810D141E005
:1024A0004FF6FF7214210846FFF771FD3F48008880
:1024B000143880B24FF4784214210990FFF767FD79
:1024C0008BE33A480088143880B24FF6FF7214212B
:1024D0000990FFF75CFD35484088143880B24FF40E
:1024E0007842014609901420FFF751FD75E32F480B
:1024F0004088143880B24FF6FF72014609901420CC
:10250000FFF745FD29484088143880B209902748D4
:102510000088143880B24FF4784208900999FFF788
:1025200036FD5AE3BDF84400BDF84810401A099042
:1025300001D4099801E0099840420D90BDF8461079
:1025400011A8C088081A099002D4099802E045E34E
:10255000099840420C900D9840430D900C984043D0
:102560000C90DDE90C10084405900FF072FACDE9EB
:1025700006010FF057F8CDE908010FF03DFA80B2DF
:102580000F90BDF84C00BDF85010401A099025D4AA
:10259000099825E03000002020BCBE4C58000020E7
:1025A000590000202A00002078313A0040340020F1
:1025B00079313A0078323A0079323A0078333A0089
:1025C00079333A0078343A0079343A00666163200E
:1025D00069733A002C0000205C00002009984042FA
:1025E0000D9011A84189C089081A099001D4099851
:1025F00001E0099840420C900D9840430D900C98D2
:1026000040430C90DDE90C10084405900FF021FACE
:10261000CDE906010FF006F8CDE908010FF0ECF95D
:1026200080B20E900E980FF021FE09900F980FF0D7
:102630001DFE089009990FF003FD0B900B980FF009
:1026400071FC4FF06632FE4BCDE908010FF014FA31
:102650000DD30B980FF066FCFA4AFB4BCDE908014D
:102660000FF044FB03D30F9808B10E98E8BB00208D
:102670001090F6484088143880B20990F3480088DA
:10268000143880B24FF6FF7208900999FFF77FFC6B
:102690004FF4784214210846FFF779FCEC490B9877
:1026A0000FF0F8FD08900FF0A9FD80B211A9099074
:1026B000C989BDF8502011AB5B89CDE90132CDE964
:1026C0000310BDF84C00009011A8C0880890BDF818
:1026D00048000790BDF846000690BDF844000590FC
:1026E00006A90EC9FFF7C2FD87E2FFE7BDF8440067
:1026F000BDF84C10401A099001D4099801E00998DE
:1027000040420D90BDF8461011A84089081A099062
:1027100001D4099801E0099840420C900D9840437B
:102720000D900C9840430C90DDE90C100844059086
:102730000FF08FF9CDE906010EF074FFCDE9080125
:102740000FF05AF980B20F90BDF84800BDF8501054
:10275000401A099001D4099801E0099840420D906F
:1027600011A8C188C089081A099001D4099801E00C
:10277000099840420C900D9840430D900C984043AE
:102780000C90DDE90C10084405900FF062F9CDE9DA
:1027900006010EF047FFCDE908010FF02DF980B2D8
:1027A0000E900E980FF062FD09900F980FF05EFDED
:1027B000089009990FF044FC0B900B980FF0B2FBB6
:1027C0004FF066329E4BCDE908010FF055F909D361
:1027D0000B980FF0A7FB9B4A9B4BCDE908010FF02C
:1027E00085FA3DD20020109098484088143880B275
:1027F000099096480088143880B24FF6FF7208900E
:102800000999FFF7C4FB4FF4784214210846FFF7FB
:10281000BEFB8F490B980FF03DFD08900FF0EEFCCA
:1028200080B211A90990C989BDF8502011AB5B890C
:10283000CDE90132CDE90310BDF84C00009011A89C
:10284000C0880890BDF848000790BDF84600069083
:10285000BDF84400059006A90EC9FFF707FDCCE1BD
:10286000BDF84800BDF84C10401A099001D40998F1
:1028700001E0099840420D9011A8C1884089081ACA
:10288000099001D4099801E0099840420C900D98F4
:1028900040430D900C9840430C90DDE90C10084427
:1028A00005900FF0D6F8CDE906010EF0BBFECDE99C
:1028B00008010FF0A1F880B20F90BDF84400BDF8F8
:1028C0005010401A099001D4099801E0099840423B
:1028D0000D90BDF8461011A8C089081A099001D4BE
:1028E000099801E0099840420C900D9840430D90E2
:1028F0000C9840430C90DDE90C10084405900FF053
:10290000A8F8CDE906010EF08DFECDE908010FF023
:1029100073F880B20E900E980FF0A8FC09900F98F3
:102920000FF0A4FC089009990FF08AFB0B900B980C
:102930000FF0F8FA4FF06632414BCDE908010FF085
:102940009BF809D30B980FF0EDFA3E4A3E4BCDE9C8
:1029500008010FF0CBF93DD2002010903B48408891
:10296000143880B2099039480088143880B24FF684
:10297000FF7208900999FFF70AFB4FF4784214217F
:102980000846FFF704FB32490B980FF083FC0890D0
:102990000FF034FC80B211A90990C989BDF850200C
:1029A00011AB5B89CDE90132CDE90310BDF84C00D4
:1029B000009011A8C0880890BDF848000790BDF8A5
:1029C00046000690BDF84400059006A90EC9FFF721
:1029D0004DFC12E1BDF84800BDF84410401A0790C4
:1029E0000FF02CFC099019480088283807900FF048
:1029F00025FC089009990FF023FB16498861BDF862
:102A00004800BDF84410084404900FF017FC0590EE
:102A1000104880690146049005980FF03BFC079030
:102A20000A48008805900FF021FC069007990FF0E6
:102A3000FDFC4FF0804108900FF002FB09900BE085
:102A40006666EE3FCDCCCCCCCCCCF03F4034002001
:102A50000000C842300000200FF0B4FB00B28C49E7
:102A6000088411A84089BDF84610401A07900FF05D
:102A7000E5FB099087484088283807900FF0DEFB77
:102A8000089009990FF0DCFA8149C86111A84089C2
:102A9000BDF84610084404900FF0D0FB05907C4828
:102AA000C0690146049005980FF0F4FB079079483F
:102AB000408805900FF0DAFB069007990FF0B6FCFE
:102AC0004FF0804108900FF0BBFA09900FF07AFBAD
:102AD00000B26F4948840846806907900FF072FB86
:102AE0000890002801DB089801E00898404202287D
:102AF0000DDC6748C06907900FF064FB099000285F
:102B000001DB099801E009984042022842DD0020DB
:102B1000109060484088143880B209905D48008861
:102B2000143880B24FF6FF7208900999FFF72FFA18
:102B30004FF4784214210846FFF729FA56A01021D5
:102B4000CDE9001053484088099052480088089009
:102B500002461A212820099BFEF78BFE4C4890F86C
:102B6000240008B9012000E00020494981F8240030
:102B7000084690F8240030B190204C490870D020CD
:102B80004B49087005E0D02048490870902048491A
:102B9000087032E01F20474908804FF6FF70FEF7AB
:102BA000FCF945A01021CDE900103A484088099071
:102BB00038480088089002466E212320099BFEF7C2
:102BC00058FE4FF47A7000F052FAFFF7B2FA4FF65F
:102BD000FF70FEF7E2F915B000BD00BF0A2000F05B
:102BE00046FA0A98401C80B20A900A98B0F57A7F9B
:102BF00002DDFFF7EFFA01E000BF23E400BF00BFF2
:102C0000E9E708B50121882000F08CFE0620ADF828
:102C1000000010208DF8030003208DF802006946A3
:102C20002B4800F0C9FB0621294800F070FC4FF446
:102C30000070ADF800006946264800F0BDFB4FF477
:102C40000071244800F063FC4FF4A060ADF8000070
:102C500048208DF8030069461E4800F0ADFB0C4982
:102C60001231881EFFF720F900F036F8FFF7B2FAAC
:102C700008B1002008BD4FF6FF70FEF78EF9FFF790
:102C8000B1FBFFF756FAFFF7A5FA0120F2E70000C3
:102C900030000020403400205450204E65656420F0
:102CA000726561646A757374210000005800002029
:102CB000590000202A000020546F75636820536378
:102CC0007265656E2041646A757374204F4B2100F4
:102CD000000C0140001C014010B5FEF705FF10BDBF
:102CE00070B504460026FEF71EFF2546E11704EBEB
:102CF00011610912A02202EB4101C8B2FEF7CDFF1B
:102D0000FEF758FFE11704EB11610912A4EB012152
:102D1000C8B2FEF7C2FFFEF74DFFFEF704FFA12089
:102D2000FEF7BBFFFEF746FF0020FEF7E6FF064674
:102D3000FEF71DFF304670BD70B504460E46FEF727
:102D4000F2FE2546E11704EB11610912A02202EB05
:102D50004101C8B2FEF7A1FFFEF72CFFE11704EB1B
:102D600011610912A4EB0121C8B2FEF796FFFEF72C
:102D700021FF3046FEF791FFFEF71CFFFEF7F7FE3E
:102D80000A2000F074F970BD2DE9F04105460E46A9
:102D90001746002409E0E20026FA02F2D1B22A190D
:102DA00090B2FFF7C9FF601CC4B2BC42F3DBBDE8C0
:102DB000F0812DE9F04107460C460026002509E088
:102DC00036023919491B491E88B2FFF789FF0644AC
:102DD000681CC5B2A542F3DB3046BDE8F08110B5F2
:102DE000FF20FFF77DFF0446552C01D1002010BDC8
:102DF0005521FF20FFF7A0FFFF20FFF771FF0446DA
:102E0000552C01D10020F2E70120F0E770B506460D
:102E10000C46154608E03046721C96B2FFF760FF7C
:102E200004F8010B681E85B2002DF4D170BD70B599
:102E300005460C46164606E021782846FFF77CFF3B
:102E4000681C85B2641C3000A6F101018EB2F3D17A
:102E500070BD000000B587B001214FF4017000F093
:102E600061FD4FF4004000F0C4FC0220ADF8040006
:102E700000208DF8070001A9434800F09DFA43485F
:102E800001F0C8FA002002908DF80C008DF80D00BA
:102E90004FF4602004900020059001208DF8180068
:102EA00002A93A4801F0DDFA0121384801F005FB9A
:102EB000364801F024FB00BF344801F025FB002810
:102EC000FAD1324801F02AFB00BF304801F02BFB59
:102ED0000028FAD107B000BD10B50446072301222F
:102EE00021462A4801F055FB0121284801F025FB25
:102EF00000BF0221254801F091FC0028F9D02348A9
:102F000001F0AEFB10BD2DE9F04107460C4600254F
:102F100000260BE03846FFF7DFFF054405230022BB
:102F20001146104603F0C8FE701C86B2A642F1DBC3
:102F3000B5FBF4F080B2BDE8F08170B5064600251F
:102F400000243046FFF7C8FF11490A780978491C68
:102F50000F4B19700F4921F81200184600783228DB
:102F600002D1002019460870002405E0094830F815
:102F700014000544601CC4B2322CF7DB3220B5FBD0
:102F8000F0F080B270BD0000000801400024014054
:102F9000600000204A34002008B510208DF803009E
:102FA0004020ADF8000003208DF8020069460A4871
:102FB00000F002FA4021084800F0ABFA08BD10B555
:102FC000044624B94021044800F0A3FA03E040215C
:102FD000014800F09CFA10BD000C014010B56FF0E4
:102FE000040000F06BF9324800683249B0FBF1F0A0
:102FF000314908702E4800682E49B0FBF1F44FF4B7
:103000007A70444301202D4908804FF0E020006988
:1030100040F002004FF0E021086108464461006979
:1030200040F00100086110BD70B5034600224FF06A
:10303000E0267569204E367803FB06F400BF4FF09A
:10304000E026B16910E04FF0E026B06988420BD06D
:10305000884202D20E1A324402E02E1A0E44324442
:103060000146A24200D300E0EDE700BF70BD70B59D
:10307000044613480078012812D110480088844281
:1030800007DB0E48008894FBF0F085B2284603F079
:10309000E3FD0A48008894FBF0F100FB114084B284
:1030A0004FF47A7104FB01F0FFF7BEFF70BD000022
:1030B0001400002000127A0062000020640000204A
:1030C000A200002010B54FF4A06000F0A7F810BDDA
:1030D000014600BF704700BF4C4A128812F0400FF3
:1030E000FAD0C2B2494B1B1D1A80704710B586B08A
:1030F0000446012144F2040000F014FC434800F0AF
:1031000079FC4FF40070ADF8140003208DF8160020
:1031100018208DF8170005A93D4800F04DF94FF42F
:103120008060ADF8140004208DF8170005A9384818
:1031300000F042F925208DF8000003208DF80100F1
:103140008DF8020001208DF80300684600F06BF84E
:1031500001940020ADF80800ADF80A00ADF80C00AD
:10316000ADF810000C20ADF80E0001A9274800F0C2
:1031700084FC012240F22551244800F016FD012173
:10318000224800F006FD06B010BD10B501F0A3FD09
:1031900040F225511D4800F0EDFD10B31B4800F032
:1031A00069FDC4B21B48008810F4004F2BD11948A8
:1031B000008810F4804F0CD00A2C03D00020154951
:1031C000088020E01348008840F40040114908803E
:1031D00019E00D2C06D10F48008840F480400D49BD
:1031E000088010E00B480088C0F30D000A490C5419
:1031F00008480088401C0749088008460088C728FE
:1032000001DD0020088001F081FD10BD0038014083
:103210000008014068000020AE340020314901431D
:10322000314A1160704770B5002100230F22C47825
:103230000CB32D4C246804F4E064C4F5E064210A66
:10324000C1F10403CA40447804FA03F184781440BD
:1032500021430901254C0678A155047804F01F0587
:103260000124AC4005786D114FF0E02606EB850592
:10327000C5F8004109E0047804F01F050124AC40C2
:103280001B4D0678761145F8264070BD194A0A4054
:103290000243154B1B1F1A60704739B1124A121DA9
:1032A00012680243104B1B1D1A6006E00E4A121DE5
:1032B000126882430C4B1B1D1A607047042808D10A
:1032C0004FF0E021096941F004014FF0E022116163
:1032D00007E04FF0E021096921F004014FF0E022FE
:1032E000116170470000FA050CED00E000E400E019
:1032F00080E100E080FFFF1F10B50446CA48844209
:1033000008D10121042000F027FB0021042000F057
:1033100023FB46E0C548844208D10121082000F083
:103320001BFB0021082000F017FB3AE0C048844254
:1033300008D10121102000F00FFB0021102000F027
:103340000BFB2EE0BB48844208D10121202000F075
:1033500003FB0021202000F0FFFA22E0B64884425F
:1033600008D10121402000F0F7FA0021402000F0B0
:10337000F3FA16E0B148844208D10121802000F020
:10338000EBFA0021802000F0E7FA0AE0AC48844222
:1033900007D10121801500F0DFFA0021A01500F00F
:1033A000DBFA10BD10B50121084600F0D5FA002166
:1033B000012000F0D1FA10BD2DE9F04102460025B0
:1033C0000026002000230024002791F803C00CF001
:1033D0000F0591F803C01CF0100F03D091F802C044
:1033E0004CEA050591F800C0BCF1000F31D014681B
:1033F00000202BE04FF0010C0CFA00F3B1F800C0F4
:103400000CEA03069E4220D183004FF00F0C0CFA09
:1034100003F7BC4305FA03FC4CEA040491F803C02B
:10342000BCF1280F06D14FF0010C0CFA00FCC2F8D9
:1034300014C00AE091F803C0BCF1480F05D14FF069
:10344000010C0CFA00FCC2F810C0401C0828D1D3B3
:103450001460B1F800C0BCF1FF0F34DD54680020E7
:103460002EE000F1080C4FF0010808FA0CF3B1F857
:1034700000C00CEA03069E4221D183004FF00F0CDE
:103480000CFA03F7BC4305FA03FC4CEA040491F878
:1034900003C0BCF1280F05D100F1080C08FA0CF8A4
:1034A000C2F8148091F803C0BCF1480F07D100F1B5
:1034B000080C4FF0010808FA0CF8C2F81080401C04
:1034C0000828CED35460BDE8F0814FF6FF7101802B
:1034D000022181700421C170704702460020936868
:1034E0000B4201D0012000E00020704701468868AF
:1034F00080B2704702460020D3680B4201D0012001
:1035000000E0002070470146C86880B27047016142
:103510007047416170470AB1016100E04161704745
:10352000C16070474FF480320A43826181618261D9
:1035300082698269704702460020424B18684FF644
:103540008073184040EA021008433E4B18607047F1
:103550003D49C8617047F0B50A46002300240021A8
:10356000002500F00046B6F1004F02D1354EF1695A
:1035700001E0344E7168C0F3034583B200F4401695
:10358000B6F5401F08D121F070612E4E766826F006
:1035900070662C4F7E6012E000F48016B6F5801F36
:1035A00006D1032606FA05F4A14341F0706106E056
:1035B000460D360103FA06F6B14341F0706122B1BF
:1035C000460D360103FA06F6314300F00046B6F127
:1035D000004F02D11B4EF16101E01A4E7160F0BD47
:1035E00030B500228B071C0F0F2303FA04F2154B92
:1035F00008338C1053F824309343124C08348D1048
:1036000044F8253023468C1053F824308C07240FBF
:1036100000FA04F423430B4C08348D1044F8253091
:1036200030BD0A490860704700080140000C0140A5
:10363000001001400014014000180140001C01402E
:10364000002001400000014000002042DC00204238
:10365000DD48006840F00100DB490860084640682A
:10366000DA490840D849486008460068D849084007
:10367000D54908600846006820F4802008600846A4
:10368000406820F4FE0048604FF41F0088607047D7
:10369000CD49096821F48031CB4A1160114609688F
:1036A00021F480211160B0F5803F03D0B0F5802F68
:1036B0000ED106E0C449096841F48031C24A116064
:1036C00007E0C149096841F4A021BF4A116000E048
:1036D00000BF00BF704710B5014600220023002044
:1036E0004A11012A02D1B84C236806E0022A02D10D
:1036F000B54C236A01E0B44C636A01F01F02012457
:1037000094401C4201D0012000E0002010BD38B5DB
:10371000002000900024002500BF3120FFF7DBFFD0
:1037200005460098401C00900098B0F5A06F01D0AD
:10373000002DF2D03120FFF7CEFF08B1012400E0C8
:103740000024204638BD014600209F4A106820F022
:10375000F80040EAC100106070479E490860704759
:1037600002460020984B586820F47C1042EA01037E
:103770001843954B58607047964908667047014654
:103780000020914A506820F00300084350607047C1
:103790008D48406800F00C007047014600208A4ABE
:1037A000506820F0F0000843506070470146002048
:1037B000854A506820F4E060084350607047014635
:1037C0000020814A506820F4605040EAC1005060F7
:1037D000704729B17C4A527A02437B4B5A7204E00B
:1037E000794A527A8243784B5A7270477A49086014
:1037F000704701460020744A506820F44040084356
:10380000506070470021754A11706F4A82F820108D
:10381000012802D0042808D103E001216F4A117069
:1038200004E005216D4A117000E000BF00BF704741
:103830006B49086070476449096A0143624A116232
:103840007047674944390860704730B5002100224D
:10385000002400235C4D6D6805F00C0121B10429A2
:1038600005D0082923D105E05E4D056022E05D4DBD
:1038700005601FE0544D6D6805F47012524D6D687F
:1038800005F48034022505EB92421CB9564D554390
:1038900005600BE04C4D6D6815F4003F03D0524DB0
:1038A0005543056002E04F4D5543056002E04D4D24
:1038B000056000BF00BF444D6D6805F0F0010909C7
:1038C0004A4D6B5C0568DD4045603F4D6D6805F411
:1038D000E061090A454D6B5C4568DD4085603A4D05
:1038E0006D6805F46051C90A404D6B5C4568DD4068
:1038F000C560354D6D6805F44041890B3C4D6B5CEE
:10390000C568B5FBF3F5056130BD29B12E4A526992
:1039100002432D4B5A6104E02B4A526982432A4BE1
:103920005A61704729B1284A92690243264B9A612D
:1039300004E0254A92698243234B9A61704729B17A
:10394000214AD2690243204BDA6104E01E4AD2695F
:1039500082431D4BDA61704729B11B4AD26802438A
:10396000194BDA6004E0184AD2688243164BDA60D9
:10397000704729B1144A12690243134B1A6104E0DB
:10398000114A12698243104B1A6170471449403939
:10399000086070470F49C86470470B49C871704789
:1039A0000948406A40F08070074948627047014604
:1039B0000020054A92680A4201D0012000E0002060
:1039C0007047014988727047001002400000FFF8FC
:1039D000FFFFF6FE00004242D800424220100240A3
:1039E0008004424200127A0000093D00700000206D
:1039F0008000002010B50446FB48844209D1012113
:103A00008803FFF7A9FF00214FF48040FFF7A4FFD0
:103A100032E0F648844209D101214804FFF7A9FFAA
:103A200000214FF40030FFF7A4FF25E0F048844266
:103A300009D101218804FFF79CFF00214FF4802069
:103A4000FFF797FF18E0EB48844209D10121C80431
:103A5000FFF78FFF00214FF40020FFF78AFF0BE0F4
:103A6000E548844208D101210805FFF782FF0021C3
:103A70004FF48010FFF77DFF10BD2DE9F04786B0B1
:103A800005460E460024A24600BFA1460027B08985
:103A900000B100BF2F462C8A4CF6FF700440F0881E
:103AA00004432C82AC894EF6F3100440B08831896F
:103AB0000843718908430443AC81AC8A4FF6FF4048
:103AC0000440B0890443AC8201A8FFF7BEFEC6489B
:103AD000874202D1DDF810A001E0DDF80CA0A88932
:103AE00010F4004F08D00AEBCA0000EB0A1031684E
:103AF0004900B0FBF1F807E00AEBCA0000EB0A103E
:103B000031688900B0FBF1F86420B8FBF0F00401E3
:103B10002009642101FB1089A88910F4004F08D006
:103B2000322000EBC900B0FBF1F000F007000443C5
:103B300008E0322000EB09106421B0FBF1F000F046
:103B40000F0004432C8106B0BDE8F0874FF41651F6
:103B5000016000218180C18001810C21418100210F
:103B60008181704710B502460020108A4FF2FF0392
:103B700018400B884C8823438C882343CC882343EC
:103B80001843108210BD0021018041808180C180D6
:103B9000704721B1828942F40052828104E0828917
:103BA0004DF6FF731A4082817047F0B5034600243A
:103BB000002600250020A1F510676A3F00D100BF54
:103BC0001846C1F3421401F01F06012707FA06F553
:103BD000012C01D10C3004E0022C01D1103000E0A6
:103BE00014301AB107682F43076002E00768AF433B
:103BF0000760F0BD1AB1838A0B43838202E0838A97
:103C00008B4383827047028A4FF6F0731A40028218
:103C1000028A0A430282704782894FF2FF731A4078
:103C2000828182890A438281704721B1828942F070
:103C30000202828104E082894FF6FD731A4082817C
:103C40007047028A4FF6DF731A400282028A0A43E3
:103C50000282704721B1028A42F48042028204E06B
:103C6000028A4BF6FF731A4002827047C1F30802C2
:103C70008280704701468888C0F3080070478189B8
:103C800041F0010181817047028BD2B20283028B25
:103C900042EA012202837047028B02F47F420283D0
:103CA000028B0A430283704721B1828A42F02002CC
:103CB000828204E0828A4FF6DF731A408282704764
:103CC00021B1828A42F01002828204E0828A4FF699
:103CD000EF731A408282704721B1828A42F0080253
:103CE000828204E0828A4FF6F7731A40828270471C
:103CF00021B1828942F40042828103E08289C2F3C9
:103D00000E028281704721B1828A42F4006282826F
:103D100004E0828A4FF2FF731A4082827047828ADF
:103D20004FF6FB731A408282828A0A43828270476E
:103D300021B1828A42F00202828204E0828A4FF636
:103D4000FD731A408282704702460020B1F5007F61
:103D500000D100BF13880B4201D0012000E00020F9
:103D6000704701F40072B2F5007F00D100BFCA4372
:103D70000280704770B50246002400230025002011
:103D8000A1F510666A3E00D100BFC1F3421501F0F3
:103D90001F03012606FA03F3012D02D19689334051
:103DA00006E0022D02D1168A334001E0968A3340A4
:103DB0000C12012606FA04F41688344013B10CB133
:103DC000012000E0002070BD10B500220023A1F505
:103DD00010646A3C00D100BF0A1201249440A3B2CF
:103DE000DC43048010BD0000003801400044004066
:103DF00000480040004C00400050004030B943F201
:103E0000DB014FF0204242F8201005E043F2D201DE
:103E10004FF0204242F820106FF07042411C4FF0EA
:103E2000204343F8212011461A4602EB8002C2F8D3
:103E30000411704710280AD118214FF02042116652
:103E4000402151664FF0FC319166D16610E0182197
:103E5000F84A11604FF040014FF02042C2F8841040
:103E60004FF0FC31F44A11604FF02042C2F88C1040
:103E700070471820F14908604FF000004FF02041D2
:103E8000C1F8A4004FF0FC30ED49086001F10401D5
:103E9000086001F1040108607047D0E90112114384
:103EA000C268114302691143426911438269114397
:103EB000C2691143026A1143426A1143826A114383
:103EC000C26A1143026B11434FF02043026843F86A
:103ED00022108168082908D11A46016852F8211079
:103EE00041F04001026843F82210416B0968426BBF
:103EF000526841EA0211426B926841EA0221426B28
:103F0000928941EA0241426B128A41EA0251426BB4
:103F1000127D41EA0261426B926911430268521CB0
:103F20004FF0204343F82210C16AB1F5804F1AD1F7
:103F3000816B0968826B526841EA0211826B926858
:103F400041EA0221826B128A41EA0251826B127DA0
:103F500041EA0261826B92691143026803EB8202BB
:103F6000C2F8041108E06FF070414FF0204302687E
:103F700003EB8202C2F80411704730B50021002221
:103F80000023446844F0080485682C43C5682C432A
:103F900005692C43456944EA4524856944EA45316D
:103FA000C4692468C5696D6844EA0524C5692D891A
:103FB00044EA0544C5692D7B44EA0562046A246825
:103FC000056A6D6844EA0524056A2D8944EA0544BA
:103FD000056A2D7B44EA05630468102C05D14FF077
:103FE00020442166A266E36607E0924C21604FF010
:103FF0002044C4F88820934C236030BD016841F010
:104000001001426841EA4221826841EA42318B4A0A
:104010001160C1680968C268526841EA0221C26839
:10402000128941EA0241C268127B41EA0261844A74
:104030001160016909680269526841EA0221026956
:10404000128941EA02410269127B41EA02617E4A19
:104050001160416909684269526841EA0221426976
:10406000128941EA02414269127B41EA02614FF042
:104070002042C2F8B0107047002101600221416067
:1040800000218160C160016141618161C1610162A2
:104090004FF480514162490081620021C162016395
:1040A0000F21426B1160426B5160FF21426B9160A6
:1040B0000F21426BD160426B1161426B5161002153
:1040C000426B91610F21826B1160826B5160FF2105
:1040D000826B91600F21826BD160826B1161826B68
:1040E00051610021826B91617047102101600021B4
:1040F00041608160C160016141618161FC21C269EF
:104100001160C2695160C2699160C269D160026A7E
:104110001160026A5160026A9160026AD160704760
:104120000021016041608160FC21C2681160C268A9
:104130005160C2689160C268D16002691160026911
:104140005160026991600269D160426911604269FF
:104150005160426991604269D160704751B14FF03E
:10416000204252F8202042F001024FF0204343F851
:10417000202009E04FF0204252F82020334B1A4013
:104180004FF0204343F82020704799B1102808D100
:104190004FF02042126E42F004024FF020431A66A4
:1041A0001DE0244A126842F004024FF02043C3F895
:1041B000802014E0102809D14FF02042126E234BCA
:1041C000DB1E1A404FF020431A6608E0194A1268B5
:1041D0001F4B02EA03024FF02043C3F880207047D0
:1041E00040B11649096841F004014FF02042C2F87D
:1041F000A01008E011490968154A01EA02014FF0D0
:104200002042C2F8A010704799B1102808D14FF091
:104210002042126E42F040024FF020431A662DE019
:10422000044A126842F040024FF02043C3F8802055
:1042300024E00FE0800000A0880000A0A00000A003
:10424000A80000A08C0000A0AC0000A0FEFF0F00A2
:10425000FBFF0F00102808D14FF02042126E684B70
:104260001A404FF020431A6608E0664A1268644B11
:1042700002EA03024FF02043C3F880207047014652
:104280000020102903D14FF02042506F01E05E4A18
:104290001068704710B5F2B1102807D14FF02043D5
:1042A0005B6E0B434FF02044636632E0B0F5807FD5
:1042B00008D1564B1B6843EA01034FF02044C4F871
:1042C000843026E0524B1B6843EA01034FF0204440
:1042D000C4F8A4301DE0102807D14FF020435B6ED6
:1042E0008B434FF02044636613E0B0F5807F08D124
:1042F000464B1B6823EA01034FF02044C4F8843086
:1043000007E0434B1B6823EA01034FF02044C4F845
:10431000A43010BD10B5024600200023102A03D19E
:104320004FF02044636E07E0B2F5807F02D1374C36
:10433000236801E0364C23680B4201D0012000E0E5
:10434000002010BD102807D14FF02042526E8A4342
:104350004FF020435A6613E0B0F5807F08D12B4A16
:10436000126822EA01024FF02043C3F8842007E0DC
:10437000274A126822EA01024FF02043C3F8A42022
:10438000704770B502460020002300240025102A43
:1043900003D14FF02046736E07E0B2F5807F02D163
:1043A0001A4E336801E01A4E336803EA010403EA47
:1043B000D10514B10DB1012000E0002070BD10281E
:1043C00008D14FF02042526E22EAD1024FF0204332
:1043D0005A6613E0B0F5807F08D10C4A126822EAD1
:1043E000D1024FF02043C3F8842007E0084A126846
:1043F00022EAD1024FF02043C3F8A4207047000006
:10440000BFFF0F00800000A0940000A0840000A067
:10441000A40000A010B50446FA48844208D1012146
:104420004015FFF799FA00216015FFF795FA17E09C
:10443000F548844208D101210015FFF78DFA0021CB
:104440002015FFF789FA0BE0F048844208D10121DA
:10445000C803FFF781FA00214FF40040FFF77CFA10
:1044600010BD30B50246002000235068E84C2040C3
:104470000D790C6844EA0524204350609068E54CAF
:104480002040D1E902542C434D7944EA45042043AD
:104490009060D06A20F470000C7C641EE4B2234368
:1044A00040EA0350D06230BD0021016001714171CA
:1044B0008160C16001210174704721B1826842F0BE
:1044C0000102826003E0826822F00102826070478C
:1044D00021B1826842F48072826003E0826822F433
:1044E00080728260704710B50023CBB21AB1446865
:1044F0001C43446002E044689C43446010BD8168F2
:1045000041F0080181607047014600208A6812F07E
:10451000080F01D0012000E000207047816841F0C1
:10452000040181607047014600208A6812F0040F80
:1045300001D0012000E00020704721B1826842F4E0
:10454000A002826003E0826822F4A00282607047C9
:10455000014600208A6812F4800F01D0012000E09B
:104560000020704710B50A4600210023416821F45D
:104570006041531E41EA4331416010BD21B14268A0
:1045800042F40062426003E0426822F4006242604A
:104590007047F0B504460D4600200021092D11DDBD
:1045A000E068A5F10A0606EB4607072606FA07F1BA
:1045B0008843A5F10A0606EB460603FA06F108430E
:1045C000E0600CE0206905EB4507072606FA07F1D5
:1045D000884305EB450603FA06F108432061072AE4
:1045E0000FDA606B561E06EB86071F2606FA07F1E8
:1045F0008843561E06EB860605FA06F108436063FB
:1046000022E00D2A0FDA206BD61F06EB86071F2645
:1046100006FA07F18843D61F06EB860605FA06F16F
:104620000843206310E0E06AA2F10D0606EB86075E
:104630001F2606FA07F18843A2F10D0606EB86064F
:1046400005FA06F10843E062F0BD21B1826842F448
:104650008012826003E0826822F4801282607047D8
:104660000146C86C80B2704766484C30006870479D
:1046700021B1426842F48062426003E0426822F461
:1046800080624260704721B1426842F480524260C9
:1046900003E0426822F48052426070470A460021DB
:1046A000816821F4E04111438160704721B1826843
:1046B00042F40042826003E0826822F40042826099
:1046C000704721B1826842F40212826003E082687E
:1046D00022F4021282607047014600208A6812F4B8
:1046E000001F01D0012000E000207047F0B5044613
:1046F0001546002000220026092911DDE068A1F1FD
:104700000A0707EB470C072707FA0CF29043A1F1C1
:104710000A0707EB470703FA07F21043E0600CE0D3
:10472000206901EB410C072707FA0CF2904301EBDB
:10473000410703FA07F210432061A06BC0F3015652
:10474000EF1C06F1010CA7EB0C0707EB870C1F27EA
:1047500007FA0CF29043EF1C06F1010CA7EB0C07D3
:1047600007EB870701FA07F21043A063F0BD10B50D
:104770000A4600210023816B21F44011531E41EAB7
:104780000351816310BD08B5002300930090009B86
:104790000B440093009B1A6008BD08B50246002038
:1047A0000090009201F12800009B184400900098AE
:1047B000006880B208BD0A4600214168164B1940C6
:1047C0001143416070474162826270470A4600218E
:1047D000416821F01F0111434160704740B1094910
:1047E0000831096841F40001064A0832116007E007
:1047F00004490831096821F40001024A08321160B5
:10480000704700000024014000280140003C0140A6
:10481000FFFEF0FFFDF7F1FFFFFD3FFF0246002026
:1048200013680B4201D0012000E000207047CA430A
:104830000260704770B502460020002300240B126E
:104840005568CEB205EA060415681D4202D00CB1C7
:10485000012000E0002070BD00220A12D343036053
:104860007047000070477047704770477047704747
:1048700070B5044610464FF080750560051F284648
:104880002C606FF00106051F28462E604FF012368F
:10489000051F28462E604FF00336051F28462E6060
:1048A0004FF00236051F28462E607610051F284659
:1048B0002E60051F284629604FF01136051F284637
:1048C0002E604FF01036051F28462E604FF0093637
:1048D000051F28462E604FF00836051F28462E601B
:1048E0004FF00736051F28462E604FF00636051F8D
:1048F00028462E604FF00536051F28462E604FF0E3
:104900000436051F28462E6070BD704770477047FB
:1049100010B502F09DFA044606480078401C05498F
:104920000870204602F098FA00F018FB00F0EEF94B
:1049300010BD0000990000200246002005E011F89B
:10494000013B02F8013B431CD8B20B78002BF6D197
:10495000137070472DE9F04105460E4614460027B6
:1049600014B90020BDE8F0811DB90420207000209A
:10497000F8E71EB90C2020700020F3E7FD4800780E
:10498000002803DD112020700020EBE728780128A3
:1049900008D0022807D0032802D0042804D100E060
:1049A00000BF00BF00BF03E0012020700020D9E756
:1049B00000BF02F04DFA074605F10F013046FFF740
:1049C000BBFF8046384602F047FA00202070404680
:1049D000C8E70146002002E0491C421CD0B20A7818
:1049E000002AF9D170472DE9F04105460E461446DC
:1049F0004FF000080CB9BDE8F08115B90420207013
:104A0000F9E716B90C202070F5E7DA48007800289D
:104A100002DD12202070EEE72878012808D0022855
:104A200007D0032802D0042804D100E000BF00BF53
:104A300000BF02E001202070DDE700BF02F008FAAD
:104A400080463046FFF7C5FF07460F2F05DD40467D
:104A500002F002FA0B202070CDE7314605F10F007D
:104A6000FFF76AFF404602F0F7F90020207000BF10
:104A7000C1E77CB5002514E06946284602F00DF830
:104A8000064666B9BC4850F8254044B1012C06D012
:104A9000D4E9020100EB8100E06301982064681C06
:104AA000C5B21F2DE8DD7CBD002402E0C82002F065
:104AB000D3F8B24800780028F8D0B14800686421E3
:104AC000B0FBF1F0AE4908600846006828B9002044
:104AD000AC490870FF2002F02BF800BF02F0B8F9D3
:104AE0000446A9480068A94908600020A649086052
:104AF000204602F0B1F9A5480068A1490968B0FB59
:104B0000F1F0C0F164009F490870FFF7B0FEFFF7B5
:104B1000B0FF642002F0A0F8E0E700B587B0032002
:104B2000002180229A4BCDE90132CDE903104FF6E6
:104B3000FE701E23974A0090AFF2930001F080FDB3
:104B400006AA95A11E2001F004FF07B000BD0024B5
:104B500000BF02F07DF904468B480068401C8A497A
:104B60000860204602F078F9FFF780FEF1E700B513
:104B700087B00320002180228B4BCDE90132CDE9A3
:104B800003104FF6FF701F23884A0090AFF24100D8
:104B900001F056FD06AA86A11F2001F0DAFE07B03B
:104BA00000BD04E0002200F8012B4A1E91B200294A
:104BB000F8DC704730B54FF4A0718148FFF7F1FF82
:104BC0007F4B03F1200500240AE0002018705D608F
:104BD0003F20D8730021197420332035601C84B223
:104BE000092CF2DB0020187058603F20D873002198
:104BF000197473487349086030BD30B54FF4BD6116
:104C00007148FFF7CEFF80215B48FFF7CAFF6E4B6C
:104C100003F1540500240AE05D613F2083F844005D
:104C200000214520C15454335435601CC4B2112CAA
:104C3000F2D3002058613F2083F844000021452032
:104C4000C1540020614908605F486149086030BD77
:104C50000022604B1A706049002004E0002201F835
:104C6000012B421CD0B20428F8DB00225B4B1A70E7
:104C70005B4B1A705B4B1A605B4B1A6070470020ED
:104C80005A4908603B4908705949087059490870E9
:104C900059490870594908603B4908603B49086018
:104CA0003749086035490870704710B5FFF7DAFDDD
:104CB000FFF7E5FFFFF7CCFFFFF79FFFFFF77AFF56
:104CC00000F059FE01F095F9FFF751FFFFF725FFBE
:104CD000FFF7C9FD10BD48480078012808D12548D4
:104CE0000078FF2804D223480078401C214908702E
:104CF00070474349374A1278885C3749095C404A13
:104D0000515C01EBC001364A1170704710B50024A8
:104D10003948007801287BD102F09AF804461548FA
:104D20000078002804DD13480078401E11490870FF
:104D300010480078E8B92E480078D0B9FFF7D9FFBD
:104D4000274800782549097888425ED00A482449D6
:104D5000097850F821002349086008460068006B74
:104D6000401C0968086325480068401C2349086006
:104D700049E04AE099000020B83A0020980000205D
:104D8000900000208C000020A4000020940000204F
:104D9000B8360020B438002075432F4F532D4949B1
:104DA0002053746174000000B8380020B43A002029
:104DB00075432F4F532D49492049646C650000000D
:104DC0007835002088000020383B0020B400002007
:104DD000AC0000209D0000209E0000209B000020D1
:104DE0009C000020B0000020A8000020C40000208B
:104DF0009A000020A3000020A200002084000020D0
:104E0000BC3A010804E002F03FF8204602F024F822
:104E100010BD10B50024FE480078012811D102F021
:104E200017F80446FB48007840B9FB480078FF2893
:104E300004D2F9480078401CF7490870204602F077
:104E40000BF810BD10B5002402F002F80446F1483A
:104E50000078F0B9F0480078D8B9FFF74AFFEF487A
:104E60000078EF490978884213D0EE48EB49097879
:104E700050F82100EC49086008460068006B401CAF
:104E800009680863E9480068401CE849086001F0C7
:104E9000F6FF204601F0E0FF10BD10B50024DC480D
:104EA0000078012822D101F0D3FF0446DA480078C7
:104EB000002818DDD8480078401ED74908700846F9
:104EC000007860B9D348007828B9204601F0C4FFC3
:104ED000FFF7B8FF0AE0204601F0BEFF06E02046DB
:104EE00001F0BAFF02E0204601F0B6FF10BD10B598
:104EF000C748007890B9FFF7FCFEC8480078C84959
:104F00000870C848C549097850F82100C6490860AA
:104F100008460068C649086001F0A1FF10BD10B541
:104F20000024022001F098FE01F092FF04460020C8
:104F3000C0490860204601F08FFF642001F08CFE1C
:104F400001F086FF0446BB480068BB4908600120A9
:104F5000BA490870204601F07FFF10BD70B50026E9
:104F6000FFF7D5FC01F074FF0646B5480068401C09
:104F7000B3490860304601F06FFFA548007801286A
:104F800058D1B048007820B1012804D0022809D1B6
:104F900003E001250BE0002509E001250120A949D6
:104FA000087004E001250020A649087000BF00BF7A
:104FB00005B970BDA448046838E001F049FF064611
:104FC000A08C78B3A08C401E0004000CA08429D1D2
:104FD00094F8260010F0370F09D014F8260F20F0AF
:104FE0003700207001206070A4F1260402E0002048
:104FF00084F8270094F8260010F0080F12D104F16D
:105000002A04A0789149097840EA01008F49087084
:1050100020788F49085C617840EA010014F82A1969
:105020008B4A50546469304601F016FF94F828000A
:105030001F28C2D100BFBCE74FF48F707047704784
:1050400010B590F82A2001F10B039B5C90F82B40DF
:10505000A34301F10B04A35423469B5C23B98B7A31
:1050600090F82C40A3438B7210BD2DE9F04F0546FC
:105070000F4690469946A87A76490E5C05F10B00DA
:10508000805D11F800B00BEBC60000F0FF0A654828
:1050900050F82A40002004F12004A0802760A07965
:1050A00020EA0800A07184F80790A079A4F12004F8
:1050B00010F0080F0DD194F82C00644909780843CA
:1050C000624908706248805D94F82B10084360497B
:1050D000885529462046FFF7B3FF5046BDE8F08FBC
:1050E00010B5534A1268D061514A126892F82A30BA
:1050F00000F10B02D25C4E4B1B6893F82B301A4325
:105100004B4B1B6893F82A4000F10B031A55827A27
:10511000474B1B6893F82C301A438272444A12683A
:1051200092F82A104A4A525C414B1B6893F82B3084
:105130009A43474B5A541A46525C42B93C4A126849
:1051400092F82C30414A12789A43404B1A7010BDA5
:105150000023837200F10B01002204E0002301F818
:10516000013B531CDAB2042AF8DB704705E011F862
:10517000013B00F8013B531E9AB2002AF7DC70474E
:105180002DE9F84F05460E4617469846DDE90BAB6C
:10519000DDF828900020009001F05AFE00902E4883
:1051A0000468002C7ED054F8140F2B490860009836
:1051B00001F052FE44F8146C25750020A074E074D0
:1051C000208244F810AC44F8089C44F80C7C24F885
:1051D00004BC24F8028C6076E810A07505F0070086
:1051E0006075A17D012088402076617D0120884086
:1051F000E0750020A060E060E06160622062A06273
:10520000E0623F2084F83000A4F1140426E000009E
:10521000A2000020990000209A0000209C0000209D
:105220009B000020B83A0020B0000020840000203D
:10523000A8000020A400002090000020980000207A
:10524000C4000020B8000020B40000209D00002011
:105250009E000020BC3A0108AC0000204FF0000185
:105260004FF0450001552046FFF750FB2046FFF761
:10527000FBFA01F0EDFD00901A4840F825401A486D
:10528000006860610020A0611748006810B11648EE
:10529000006884611448046004F12A04A07813496A
:1052A000097800E019E040EA010010490870207810
:1052B0000F49085C617840EA010014F82A190C4A89
:1052C00050540C48007800F101000A490870009819
:1052D00001F0C2FD0020BDE8F88F009801F0BCFD90
:1052E0004220F8E7B83A0020B40000209D000020DA
:1052F0009E000020A300002070B5044600260CB9D3
:10530000002070BD2078012801D00020F9E701F0CD
:105310009FFD0646656800206060304601F09CFDF8
:105320002846EEE770B505460026F94800780028C3
:1053300001DD002070BD01F08BFD0646F5480468D4
:10534000006820B1F34800684068F24908603046C0
:1053500001F082FD5CB10120207000202081656099
:105360003F20E073002121742046FFF7F1FE204624
:10537000E0E72DE9F0470446884615464FF000095E
:1053800015B92046BDE8F0871CB9042028702046D6
:10539000F8E72078012803D0012028702046F1E7A3
:1053A000DB480078002803DD0F2028702046E9E75D
:1053B00001F04EFD8146A07A08B1012700E00027E8
:1053C000B8F1000F03D0B8F1010F3ED11BE09FB937
:1053D0003F20E0730021217400202070CD48006838
:1053E000606000202081CB480460484601F034FD15
:1053F00000202870002605E0484601F02DFD4920D8
:105400002870264628E005E000230222194620469F
:10541000FFF72BFEA07A0028F6D13F20E073002191
:10542000217400202070BB4800686060002020814B
:10543000B8480460484601F00FFD012F01D1FFF785
:1054400001FD00202870002606E0484601F004FD1A
:1054500007202870264600BF00BF304692E72DE99E
:10546000F04105460F4614464FF0000814B90020DD
:10547000BDE8F0811DB9042020700020F8E72878ED
:10548000012803D0012020700020F1E7A048007817
:10549000002803DD022020700020E9E79E48007804
:1054A000002803DD0D2020700020E1E701F0D0FC92
:1054B00080466E6846B100206860404601F0CCFC32
:1054C000002020703046D3E79448006890F826000A
:1054D00040F002009149096881F8260000208F49B8
:1054E000096881F827008D48006887842846FFF7FF
:1054F000F7FD404601F0B0FCFFF7A4FC01F0A8FC6A
:1055000080468648006890F8270020B101280DD019
:1055100002280AD105E081480068066A0020207050
:105520000DE000260E20207009E000BF29467B48D0
:105530000068FFF785FD00260A20207000BF00BF2D
:1055400000207649096881F826007449096881F8C5
:10555000270072490968C8617049096808624046B5
:1055600001F07AFC304683E72DE9F04105460F460D
:1055700014464FF0000814B90020BDE8F0811DB9B1
:10558000042020700020F8E72878012803D00120AB
:1055900020700020F1E701F05BFC8046A87A18B388
:1055A00000267FB1012F0CD107E002231A4600210B
:1055B0002846FFF75AFD701CC6B2A87A0028F4D11D
:1055C00008E000BF02231A4600212846FFF74DFDE0
:1055D000761C00BF00BF404601F03EFCFFF732FCE6
:1055E0000E2020703046C8E7404601F035FC002010
:1055F000207000BFC1E770B504460D4600260CB907
:10560000042070BD0DB90320FBE72078012801D0EC
:105610000120F6E701F01CFC0646A07A60B10023E9
:10562000022229462046FFF720FD304601F014FCF7
:10563000FFF708FC0020E4E7606820B1304601F085
:105640000BFC1420DDE76560304601F005FC00200E
:10565000D7E72DE9F04104460D461646002714B958
:105660000420BDE8F0810DB90320FAE72078012875
:1056700001D00120F5E701F0EBFB0746A07AE8B185
:1056800016F0010F0AD005E0002302222946204629
:10569000FFF7EBFCA07A0028F6D105E000230222F8
:1056A00029462046FFF7E1FC384601F0D5FB16F00D
:1056B000040F01D1FFF7C6FB0020D2E7606820B1DC
:1056C000384601F0C9FB1420CBE76560384601F08D
:1056D000C3FB0020C5E72DE9F04704460D464FF017
:1056E000000914B90420BDE8F0870DB90920FAE7D4
:1056F0002078012801D00120F5E701F0A9FB8146BF
:10570000A07A287204F10B0705F1040800260DE0C9
:1057100099000020880000209A000020A8000020A6
:1057200017F8010B08F8010B701CC6B2042EF7DB4A
:1057300060682860484601F08FFB0020D3E7000036
:105740002DE9F84F06460F4690461C460020009073
:105750000CB9BDE8F88F1EB9622020700020F8E770
:1057600016F0030F03D0622020700020F1E7022F13
:1057700003D25B2020700020EBE7B8F1040F03D2C6
:105780005C2020700020E4E701F062FB00908B4871
:105790000568006820B1894800684068874908604A
:1057A000009801F059FB1DB95A2020700020D0E765
:1057B000B14606EB080A4FF0000B05E0C9F800A05F
:1057C000D146C2440BF1010B781E5845F6D8002093
:1057D000C9F800002E606E602F61EF60C5F8088088
:1057E00020702846B5E72DE9F04104460D46002714
:1057F00015B90020BDE8F0811CB960202870002098
:10580000F8E701F025FB0746206960B1666830685B
:1058100060602069401E2061384601F01DFB0020B9
:1058200028703046E6E7384601F016FB5D20287008
:105830000020DFE72DE9F04105460E46144600271B
:1058400014B90020BDE8F0811DB96020207000204F
:10585000F8E71EB90C2020700020F3E758480078C4
:10586000002803DD112020700020EBE701F0F0FAA2
:10587000074605F114013046FFF75EF880463846CA
:1058800001F0EAFA002020704046DBE72DE9F04104
:1058900005460E4614464FF000080CB9BDE8F081ED
:1058A00015B960202070F9E716B90C202070F5E7D3
:1058B00043480078002802DD12202070EEE701F056
:1058C000C7FA80463046FFF784F807460F2F05DDFC
:1058D000404601F0C1FA63202070DFE7314605F150
:1058E0001400FFF729F8404601F0B6FA00202070B6
:1058F00000BFD3E770B504460D4600260CB9602002
:1059000070BD0DB95F20FBE701F0A2FA0646D4E9AD
:105910000310884204D3304601F09EFA5E20EFE780
:105920006068286065602069401C2061304601F095
:1059300093FA0020E4E770B505460C4600260DB941
:10594000602070BD0CB96120FBE701F081FA0646CA
:105950002868206068686060A868A060E868E06007
:1059600028692061304601F077FAD4E90301401A32
:1059700060610020E5E770B5B4211248FFF711F926
:10598000104C00250DE0681C00EBC0000D4901EB38
:10599000800060603F202075002161752434681C00
:1059A00085B2042DEFDB002060603F2020750021D0
:1059B000617504480149086070BD0000BC0000200A
:1059C00099000020204100202DE9F04106460D46B7
:1059D0004FF0000815B90020BDE8F0811EB9042081
:1059E00028700020F8E73078022803D001202870C2
:1059F0000020F1E701F02CFA80467468E08A002864
:105A00000FDD2169081D20610F68E08A401EE082D9
:105A1000A1682069884201D1606820610020287057
:105A200002E01F2028700027404601F015FA384692
:105A3000D2E72DE9F04106460F464FF00008FE4838
:105A40000078002802DD0020BDE8F08101F000FAB6
:105A50008046FA480468006820B1F8480068406849
:105A6000F6490860404601F0F7F90CB301F0F0F98F
:105A70008046F3480568E5B100680068F0490860B1
:105A8000404601F0E9F96E6006EB8700A860EE6021
:105A90002E61AF820020E882022020700020208149
:105AA00065603F20E073002121742046FFF750FB22
:105AB00008E0E24800686060E0480460404601F0A9
:105AC000CBF900242046BFE72DE9F047044689467C
:105AD00015464FF0000A15B92046BDE8F0871CB9FD
