:020000040200F8
:1000000020D6002079050002650300026703000284
:100010006B0300026F030002730300020000000084
:100020000000000000000000000000007703000254
:100030007903000200000000D75700028B03000282
:100040009305000293050002930500029305000248
:100050009305000293050002930500029305000238
:100060000D060002930500029305000293050002AD
:100070009305000293050002930500029305000218
:100080009305000293050002930500029305000208
:1000900093050002930500029305000293050002F8
:1000A00093050002930500029305000293050002E8
:1000B000433C00023B080002930500029305000246
:1000C00093050002930500029305000293050002C8
:1000D00093050002671400029305000293050002D5
:1000E00093050002930500029305000293050002A8
:1000F0009305000293050002930500029305000298
:1001000093050002930500021B09000293050002FB
:100110009305000293050002930500029305000277
:100120009305000293050002930500029305000267
:1001300000F002F800F06BF80AA090E8000C82448E
:100140008344AAF10107DA4501D100F060F8AFF26B
:10015000090EBAE80F0013F0010F18BFFB1A43F0A5
:1001600001031847C8690000E86900000A444FF01D
:10017000000C10F8013B13F0070408BF10F8014B06
:100180001D1108BF10F8015B641E05D010F8016B4B
:10019000641E01F8016BF9D113F0080F1EBF10F8AF
:1001A000014BAD1C0C1B09D16D1E58BF01F801CBD2
:1001B000FAD505E014F8016B01F8016B6D1EF9D555
:1001C0009142D6D37047000000230024002500266A
:1001D000103A28BF78C1FBD8520728BF30C148BFAA
:1001E0000B607047642905F08783752905F08483C7
:1001F000782905F0BD83632905F01885732905F07A
:100200001D85002070471FB51FBD10B510BD05F03E
:1002100047FD1146FFF7F7FF00F079F805F065FD9F
:1002200003B4FFF7F2FF03BC01F0C0F830B5424859
:10023000B0F1807F00D319E0411E4FF0E022516100
:1002400051170F22002906DA13013C4C01F00F056B
:100250002D1F635502E01301394C635400BF002188
:100260004FF0E02291610721116100BF30BD00BF56
:1002700000BF08E0002000F049FA0A2300221146DE
:10028000104605F0C1F9F5E700BF11E0012000F0CC
:10029000E7F9002301221946184605F0B5F90020B8
:1002A00000F0DEF9002301221946184605F0ACF9EA
:1002B000ECE700BF11E0002000F0DFF9002301228D
:1002C0001946184605F0A0F9012000F0D6F90023E0
:1002D00001221946184605F097F9ECE710B50446D7
:1002E00000BF0A23174A0021174804F002FE0B231F
:1002F000164A0021164804F0FCFD0F23154A002180
:10030000154804F0F6FD192005F0BCF810BD10B535
:1003100001F046F800F0BEF9FFF788FF00F0DCF9C5
:1003200004F0ECFA19230D4A00210D4804F0E1FD18
:1003300004F0B7FB002010BD4019010018ED00E0EB
:1003400000E400E080C30020B302000248C40020A3
:100350008902000210C500206F020002B8C200200E
:10036000DD020002704700BFFEE700BFFEE700BFEE
:10037000FEE700BFFEE77047704710B504F0D0FA03
:1003800004F00AFC04F0E7FA10BD10B504F0C8FA56
:1003900004F002FC04F0DFFA10BD00000CB50020F0
:1003A000019000906B48006840F480306949086013
:1003B00000BF6848006800F4003000900198401CBD
:1003C0000190009818B90198B0F5A06FF1D161487B
:1003D000006810F4003F02D00120009001E00020EE
:1003E00000900098012842D15B48006840F010005E
:1003F000594908600846006820F003000860084674
:10040000006840F002000860524840685149486066
:100410000846406848600846406840F4806048608C
:100420000846406820F47C1048600846406840F464
:10043000E81048600846006840F08070086000BF1F
:100440004448006810F0007FFAD04248406820F02D
:100450000300404948600846406840F00200486098
:1004600000BF3C48406800F00C000828F9D10CBDE2
:1004700010B5FFF793FF10BD10B53648006840F087
:100480000100344908600846406834490840314951
:10049000486008460068324908402E49086008460E
:1004A000006820F4802008600846406820F4FE00C0
:1004B00048604FF41F008860FFF7DAFF4FF00060DC
:1004C0002849086010BD10B5002100200022214BF2
:1004D0005B6803F00C0121B1042906D0082928D15A
:1004E00007E0214B214C236027E01F4B1F4C23606A
:1004F00023E0184B5B6803F47010164B5B6803F441
:100500008032022303EB904022B9194B4343174C2E
:1005100023600DE00F4B5B6813F4003F04D0144BD5
:100520004343124C236003E00F4B43430F4C2360C3
:1005300003E00D4B0D4C236000BF00BF054B5B6813
:10054000C3F303130B4CE15C084B1B68CB40074C17
:10055000236010BD00100240002002400000FFF8A0
:10056000FFFFF6FE08ED00E000127A0000C0002058
:1005700000093D0004C000200948804709480047A1
:10058000FEE7FEE7FEE7FEE7FEE7FEE7FEE7FEE743
:10059000FEE7FEE704480549054A064B70470000A0
:1005A000790400023101000220D0002020D6002072
:1005B00020D2002020D200200EB50121084601F0F3
:1005C000A9FB0221042001F003FA0420019000207D
:1005D0008DF808000C208DF8090001208DF80A0024
:1005E00001A801F001F84FF4A06000F081FF08209D
:1005F0008DF8000002208DF801008DF80200012026
:100600008DF80300684600F078FF0EBD10B50A2093
:1006100000F09AFE0421104801F057F9B8B90F48CC
:10062000007830B1002000F028F8012000F018F820
:1006300005E0012000F021F8002000F011F8074843
:10064000007808B9012000E0002004490870042067
:1006500001F02CF810BD00000018014014C000206B
:1006600010B5044624B92021194801F04AF903E0E5
:100670002021174801F043F910BD10B5044624B9F4
:100680002021144801F03DF903E02021114801F038
:1006900036F910BD08B510208DF803002020ADF804
:1006A000000003208DF802000121482001F032FBF8
:1006B0006946084801F078F86946054801F074F881
:1006C0000120FFF7DAFF0120FFF7CAFF08BD000095
:1006D00000180140000C014008B50121442001F040
:1006E00019FB1C20ADF8000048208DF80300694676
:1006F000374801F059F80120ADF8000028208DF8A6
:1007000003006946334801F04FF808BD10B50446B0
:1007100014B10120304908702F48007800283AD0E1
:1007200010212B4801F0D1F878B10821284801F0B8
:10073000CCF850B10421264801F0C7F828B10121B6
:10074000244801F0C2F8012825D10A2300221146CD
:10075000104604F059FF00201F49087010211C4862
:1007600001F0B3F808B9012010BD0821184801F0C4
:10077000ACF808B90220F7E70421154801F0A5F804
:1007800008B90320F0E70121124801F09EF8012882
:100790001BD10420E8E710210D4801F096F801284C
:1007A00013D108210A4801F090F801280DD1042145
:1007B000074801F08AF8012807D10121054801F016
:1007C00084F810B90120044908700020CCE700002B
:1007D000001801400008014015C000207FB5044604
:1007E0000D460121022001F0A2FAADF804500020CC
:1007F000ADF80600ADF808404FF48070ADF80A007F
:1008000001A91A4801F0C6FD1D208DF80000002046
:100810008DF8010003208DF8020001208DF80300FF
:10082000684600F06AFE01221146104802F029F9DC
:1008300001210E4802F00AF97FBD10B501210B48D5
:1008400002F0CDFB01280FD10121084802F0D8FBAE
:100850000748007808B9012000E00020044908702A
:1008600008460078FFF709FF10BD000000040040B3
:1008700016C0002030B589B005460C46012108207D
:1008800001F055FA0121042001F044FA28208DF8E6
:1008900023000120ADF8200003208DF8220008A9D4
:1008A0001E4800F081FF0020ADF81600A8B2ADF898
:1008B0001800A0B2ADF814000020ADF81A0005A988
:1008C000174801F067FD0020ADF80800ADF80A00F8
:1008D000ADF80E000120ADF80C000020ADF81000BE
:1008E00002A90F4801F0E9FF32208DF80400012031
:1008F0008DF8070002208DF805008DF8060001A88C
:1009000000F0FBFD01220321054802F0BAF80121A5
:10091000034802F09BF809B030BD70470008014061
:10092000000C004000BF0100A0F10102D0B2FAD1DA
:100930007047FE48C079FE4908807047FC49891C11
:1009400008807047FA490880704700B502460B4698
:10095000F649087AFFF7F6FF1012FFF7EFFFD0B263
:10096000FFF7ECFFF149487AFFF7ECFF1812FFF7A9
:10097000E5FFD8B2FFF7E2FF00BD70B504460026E0
:10098000EA4805884088454300210846FFF7DDFF17
:10099000FFF7CFFF00BF03E0E548801C0480761C12
:1009A000AE42F9D370BDE24A1080921C11807047AC
:1009B000F0B5064600240027082E1CD2DFE806F01A
:1009C0000406090C0F12151800BF14E044F080044F
:1009D00011E044F040040EE044F0C0040BE044F0A9
:1009E000200408E044F0600405E044F0A00402E0C4
:1009F00044F0E00400BF00BF362744F0080444F090
:100A0000020421463846FFF7CEFF14F0200F0DD028
:100A1000C6480088C5494988884214DAC348058811
:100A20004088C2490880084645800CE0BF480088DD
:100A3000BE494988884206DDBC4805884088BB49D4
:100A4000088008464580B949087AFFF77BFF0020F7
:100A5000FFF774FF0020FFF771FFB4490988491EB2
:100A6000C1F30F20FFF76AFFB0490978491EC8B2E9
:100A7000FFF764FFAD49487AFFF764FF0020FFF7F6
:100A80005DFF0020FFF75AFFA8494988491EC1F3BE
:100A90000F20FFF753FFA5498978491EC8B2FFF719
:100AA0004DFFF0BDA248801C0088704700B59FB084
:100AB000012140F2691001F02DF90121080201F035
:100AC0001CF910208DF87B000120ADF87800032080
:100AD0008DF87A001EA9974800F066FE18208DF860
:100AE0007B004CF23370ADF8780003208DF87A006B
:100AF0001EA9914800F058FE18208DF87B004FF693
:100B00008070ADF8780003208DF87A001EA98B481C
:100B100000F04AFE18208DF87B0041F20100ADF88C
:100B2000780003208DF87A001EA9854800F03CFE6D
:100B300001200890002009900F200A9000200B90BF
:100B40000C900D900E90079001900290032003905E
:100B5000002004900590069006200F900020109031
:100B60001190102012900020139014901590169060
:100B700017904FF480501890002019901B904FF45C
:100B800080401A9008A81C9001A81D900FA802F0A0
:100B90008AFA0121062002F0E7FBBF20FFF7D2FE10
:100BA000FFF780FFFFF77EFFFFF77CFFFFF77AFF7D
:100BB0005E498880084680884FF6FF7101EA002070
:100BC0005A498880FFF76EFF58498988084357497A
:100BD00088801120FFF7B6FE142000F0B5FBD0206E
:100BE000FFF7B0FE0720FFF7A9FE4220FFF7A6FEA1
:100BF0001D20FFF7A3FED120FFF7A4FE0020FFF782
:100C00009DFE1A20FFF79AFE0920FFF797FED220DB
:100C1000FFF798FE0120FFF791FE2220FFF78EFEDE
:100C2000C020FFF78FFE1020FFF788FE3B20FFF764
:100C300085FE0020FFF782FE0220FFF77FFE1120D5
:100C4000FFF77CFEC520FFF77DFE0320FFF776FE51
:100C5000C820FFF777FE0020FFF770FE2520FFF782
:100C60006DFE2120FFF76AFE0520FFF767FE0020DA
:100C7000FFF764FE0A20FFF761FE6520FFF75EFEC6
:100C80002520FFF75BFE7720FFF758FE5020FFF787
:100C900055FE0F20FFF752FE0020FFF74FFEF82011
:100CA000FFF750FE0120FFF749FEFE20FFF74AFE46
:100CB0000020FFF743FE0220FFF740FE2020FFF751
:100CC00041FE3620FFF73EFE0820FFF737FE3A20B0
:100CD000FFF738FE5520FFF731FE2B20FFF732FEDD
:100CE0000020FFF72BFE0020FFF728FE0120FFF772
:100CF00025FE3F20FFF722FE2A20FFF723FE0020DB
:100D0000FFF71CFE0020FFF719FE0120FFF716FE7B
:100D1000DF20FFF713FE782000F016FB2920FFF7F5
:100D200011FE0020014988712C200BE014C5002021
:100D3000FE07006C000C0140001401400018014047
:100D400000200140C8712A2008722B2048724FF4FD
:100D5000F07048804FF4A07008800020FFF728FE54
:100D60000121F84800F0CBFD4FF6FF70FFF705FEBC
:100D70001FB000BD10B504462046FFF7E3FD052077
:100D800000F0BFFAFFF78EFE10BDEF4908807047F4
:100D900000B52920FFF7D6FD00BD00B52820FFF7DC
:100DA000D1FD00BD70B505460E46144631462846B5
:100DB000FFF7CBFDFFF7BDFD2046FFF7BFFD70BD80
:100DC0002DE9F04F04460D4690469946DDF824A0E3
:100DD000A9EB0500401C86B2A8EB0400401C1FFADA
:100DE00080FB29462046FFF7B0FDFFF7A2FD10E08B
:100DF0005F460AE07219521E91B23A19521E90B221
:100E00005246FFF7CFFF781E87B2002FF2DC701E2C
:100E100086B2002EECDCBDE8F08F2DE9FF4F84B0E8
:100E200081468A460020029083460698A0EB090579
:100E30000798A0EB0A06CDF80490CDF800A0002D8D
:100E400001DD012705E00DB9002702E04FF0FF3773
:100E50006D42002E02DD4FF0010806E016B94FF09A
:100E6000000802E04FF0FF387642B54201DD2C4623
:100E700000E03446002003901EE0009A91B2019AEF
:100E800090B2119AFFF78EFF029828440290B34463
:100E90000298A04205DD0298001B02900198384498
:100EA0000190A34504DDABEB040B00984044009097
:100EB0000398401C80B20390611C03988842DCDDDB
:100EC00008B0BDE8F08F2DE9F04706460F46904682
:100ED0009A46002445460320A0EB480944E07A1BCB
:100EE00091B2321990B25246FFF75CFF3A1B91B2B1
:100EF000721990B25246FFF755FF3A1991B2721922
:100F000090B25246FFF74EFF7A1991B2321990B261
:100F10005246FFF747FF7A1991B2321B90B2524600
:100F2000FFF740FF3A1991B2721B90B25246FFF799
:100F300039FF7A1B91B2321B90B25246FFF732FF53
:100F40003A1B91B2721B90B25246FFF72BFF641C02
:100F5000B9F1000F03DAA000801D814404E0601B9A
:100F600080000A3081446D1EAC42B8DDBDE8F087D8
:100F70002DE9F84F05460F4690461E4600977348E8
:100F8000B0F80090A8F1200000F0FF080A980028AF
:100F900050D100244BE00C2E07D108EB48006C49DF
:100FA00001EB800010F804A004E06A4800EB081090
:100FB00010F804A04FF0000B33E01AF0800F03D0BC
:100FC0006248A0F8009003E0634800885F49088009
:100FD0005E48028839462846FFF7E4FE4FEA4A6039
:100FE0004FEA106A781C87B25C480088A84204DC8B
:100FF0005648A0F80090BDE8F88F0098381AB04223
:101000000BD1009F681C85B254480088A84203DCBD
:101010004E48A0F80090EEE706E00BF1010000F06A
:10102000FF0BBBF1080FC8DB00BF601CC4B2B442A9
:10103000B1DB46E0002442E00C2E07D108EB48006B
:10104000434901EB800010F804A004E0414800EBA4
:10105000081010F804A04FF0000B2AE01AF0800FDF
:1010600005D03A48028839462846FFF79BFE4FEAEA
:101070004A604FEA106A781C87B238484088A84214
:1010800003DC3248A0F80090B5E70098381AB04267
:101090000BD1009F681C85B230480088A84203DC51
:1010A0002A48A0F80090A6E706E00BF1010000F046
:1010B000FF0BBBF1080FD1DB00BF601CC4B2B44210
:1010C000BADB2248A0F8009000BF94E710B50246B2
:1010D000012000E050430B00A1F10104E1B2F9D17D
:1010E00010BD2DE9FF4F81B0074691461E460E9D6B
:1010F0004FF0000A002448E0301B401EC1B20A2015
:10110000FFF7E4FFB9FBF0F00A21B0FBF1F201FBBD
:101110001208BAF1000F25D1701EA04222DDB8F1ED
:10112000000F1DD10020AB4605EBDB71491001FB20
:101130000471009088B22B4620220299FFF718FF15
:1011400021E00000000C01400008006C18C00020E5
:101150000E5D0002826100021AC0002014C500204A
:101160004FF0010A0020AB4605EBDB71491001FB93
:101170000471009088B208F13001CAB22B4602997E
:10118000FFF7F6FE00BF601CC4B2B442B4DB05B08A
:10119000BDE8F08F2DE9FF4F82B0064692461F460C
:1011A000DDE90F480020019000254DE0781B401E2E
:1011B000C1B20A20FFF78AFFBAFBF0F00A21B0FBA8
:1011C000F1F201FB1209019850BB781EA84227DDFD
:1011D000B9F1000F22D118F0800F0FD008F00100F4
:1011E000A34604EBDB71491001FB0561009088B256
:1011F000234630220399FFF7BBFE0EE008F0010002
:10120000A34604EBDB71491001FB0561009088B235
:10121000234620220399FFF7ABFE13E00120019043
:1012200008F00100A34604EBDB71491001FB0561E6
:10123000009088B209F13001CAB223460399FFF742
:1012400097FE00BF681CC5B2BD42AFDB06B0BDE86B
:10125000F08F2DE9F84704460D4690469946DDE9A2
:10126000096704F0FF0A08EB04001FFA80F809EB95
:1012700005001FFA80F916E0444502DB5446A81920
:1012800085B24D4500DB14E0002000903A783346EB
:1012900029462046FFF76CFE304606EBD07104EB82
:1012A00061018CB27F1C38787E2802DC38782028D7
:1012B000E2DA00BFBDE8F8871CB5044610200346FB
:1012C000C8221146CDE900043C20FFF7C2FF1CBD37
:1012D00010B56FF0040000F05BF92D4800682D494F
:1012E000B0FBF1F02C4908700846007800EB400193
:1012F000C1EBC0104FF6FF7101EAC000274908801A
:1013000010BD0146244A12784A434FF0E0235A6147
:1013100000229A611A46126942F001021A6100BF66
:101320004FF0E022106910F0010F02D010F4803F5E
:10133000F6D04FF0E022126922F001024FF0E023D4
:101340001A6100229A6170470146144A12884A4382
:101350004FF0E0235A6100229A611A46126942F066
:1013600001021A6100BF4FF0E022106910F0010F76
:1013700002D010F4803FF6D04FF0E022126922F044
:1013800001024FF0E0231A6100229A6170470000C9
:1013900000C0002000127A001EC0002020C00020E3
:1013A00010B54FF4A06000F0A3F810BD014600BFD7
:1013B000704700BF4A4A128812F0400FFAD0C2B2FA
:1013C000474B1B1D1A80704710B586B0044601219B
:1013D00044F2040000F09EFC414800F003FD4FF48D
:1013E0000070ADF8140003208DF8160018208DF859
:1013F000170005A93B4800F0D7F94FF48060ADF81D
:10140000140004208DF8170005A9364800F0CCF927
:1014100025208DF8000003208DF801008DF80200D2
:1014200001208DF80300684600F067F80194002061
:10143000ADF80800ADF80A00ADF80C00ADF81000EA
:101440000C20ADF80E0001A9254800F00EFD012288
:1014500040F22551224800F0A0FD0121204800F073
:1014600090FD06B010BD10B540F225511C4800F0AB
:1014700079FE10B31A4800F0F5FDC4B21A4800888E
:1014800010F4004F2BD11848008810F4804F0CD076
:101490000A2C03D000201449088020E0124800885C
:1014A00040F400401049088019E00D2C06D10E4888
:1014B000008840F480400C49088010E00A48008809
:1014C000C0F30D0009490C5407480088401C064928
:1014D000088008460088C72801DD0020088010BD6C
:1014E000003801400008014024C000201EC5002033
:1014F00031490143314A1160704770B50021002322
:101500000F22C4780CB32D4C246804F4E064C4F5B5
:10151000E064210AC1F10403CA40447804FA03F1EB
:101520008478144021430901254C0678A15504789C
:1015300004F01F050124AC4005786D114FF0E02642
:1015400006EB8505C5F8004109E0047804F01F05A5
:101550000124AC401B4D0678761145F8264070BD3D
:10156000194A0A400243154B1B1F1A60704739B1D4
:10157000124A121D12680243104B1B1D1A6006E02E
:101580000E4A121D126882430C4B1B1D1A607047D5
:10159000042808D14FF0E021096941F004014FF01F
:1015A000E022116107E04FF0E021096921F0040118
:1015B0004FF0E022116170470000FA050CED00E0E9
:1015C00000E400E080E100E080FFFF1F00204449CC
:1015D0000860091D0860091D0860091D0860414870
:1015E0003F4914310860704700213D498279002A43
:1015F0003AD00A46126803689A430B461A600A1DDD
:10160000126803689A430B1D1A60027911440A6834
:1016100003681A430A60324A0832126803689A4320
:101620002F4B08331A601A1D126803689A432C4B1B
:101630000C331A604279102A0ED11A1F12680368FF
:101640001A43274B08331A601A1D126803681A439D
:10165000234B0C331A600DE02149427911440A688A
:1016600003681A430A6005E0027911440A680368B6
:101670009A430A6070470021016001710C21417199
:101680000021817170471649103109680143144ADD
:1016900010321160704701460020114A143212685E
:1016A0000A4201D0012000E0002070470C491431AB
:1016B00008607047014600200022094B1B6803EABE
:1016C0000102074B14331B680B4202D00AB1012000
:1016D00000E00020704702491431086070470000A4
:1016E00000040140FFFF0F0010B50446CA488442C1
:1016F00008D10121042000F027FB0021042000F084
:1017000023FB46E0C548844208D10121082000F0AF
:101710001BFB0021082000F017FB3AE0C048844280
:1017200008D10121102000F00FFB0021102000F053
:101730000BFB2EE0BB48844208D10121202000F0A1
:1017400003FB0021202000F0FFFA22E0B64884428B
:1017500008D10121402000F0F7FA0021402000F0DC
:10176000F3FA16E0B148844208D10121802000F04C
:10177000EBFA0021802000F0E7FA0AE0AC4884424E
:1017800007D10121801500F0DFFA0021A01500F03B
:10179000DBFA10BD10B50121084600F0D5FA002192
:1017A000012000F0D1FA10BD2DE9F04102460025DC
:1017B0000026002000230024002791F803C00CF02D
:1017C0000F0591F803C01CF0100F03D091F802C070
:1017D0004CEA050591F800C0BCF1000F31D0146847
:1017E00000202BE04FF0010C0CFA00F3B1F800C020
:1017F0000CEA03069E4220D183004FF00F0C0CFA36
:1018000003F7BC4305FA03FC4CEA040491F803C057
:10181000BCF1280F06D14FF0010C0CFA00FCC2F805
:1018200014C00AE091F803C0BCF1480F05D14FF095
:10183000010C0CFA00FCC2F810C0401C0828D1D3DF
:101840001460B1F800C0BCF1FF0F34DD5468002013
:101850002EE000F1080C4FF0010808FA0CF3B1F883
:1018600000C00CEA03069E4221D183004FF00F0C0A
:101870000CFA03F7BC4305FA03FC4CEA040491F8A4
:1018800003C0BCF1280F05D100F1080C08FA0CF8D0
:10189000C2F8148091F803C0BCF1480F07D100F1E1
:1018A000080C4FF0010808FA0CF8C2F81080401C30
:1018B0000828CED35460BDE8F0814FF6FF71018057
:1018C000022181700421C170704702460020936894
:1018D0000B4201D0012000E00020704701468868DB
:1018E00080B2704702460020D3680B4201D001202D
:1018F00000E0002070470146C86880B2704701616F
:101900007047416170470AB1016100E04161704771
:10191000C16070474FF480320A4382618161826105
:1019200082698269704702460020424B18684FF670
:101930008073184040EA021008433E4B186070471D
:101940003D49C8617047F0B50A46002300240021D4
:10195000002500F00046B6F1004F02D1354EF16986
:1019600001E0344E7168C0F3034583B200F44016C1
:10197000B6F5401F08D121F070612E4E766826F032
:1019800070662C4F7E6012E000F48016B6F5801F62
:1019900006D1032606FA05F4A14341F0706106E082
:1019A000460D360103FA06F6B14341F0706122B1EB
:1019B000460D360103FA06F6314300F00046B6F153
:1019C000004F02D11B4EF16101E01A4E7160F0BD73
:1019D00030B500228B071C0F0F2303FA04F2154BBE
:1019E00008338C1053F824309343124C08348D1074
:1019F00044F8253023468C1053F824308C07240FEC
:101A000000FA04F423430B4C08348D1044F82530BD
:101A100030BD0A490860704700080140000C0140D1
:101A2000001001400014014000180140001C01405A
:101A3000002001400000014000002042DC00204264
:101A4000DD48006840F00100DB4908600846406856
:101A5000DA490840D849486008460068D849084033
:101A6000D54908600846006820F4802008600846D0
:101A7000406820F4FE0048604FF41F008860704703
:101A8000CD49096821F48031CB4A116011460968BB
:101A900021F480211160B0F5803F03D0B0F5802F94
:101AA0000ED106E0C449096841F48031C24A116090
:101AB00007E0C149096841F4A021BF4A116000E074
:101AC00000BF00BF704710B5014600220023002070
:101AD0004A11012A02D1B84C236806E0022A02D139
:101AE000B54C236A01E0B44C636A01F01F02012483
:101AF00094401C4201D0012000E0002010BD38B508
:101B0000002000900024002500BF3120FFF7DBFFFC
:101B100005460098401C00900098B0F5A06F01D0D9
:101B2000002DF2D03120FFF7CEFF08B1012400E0F4
:101B30000024204638BD014600209F4A106820F04E
:101B4000F80040EAC100106070479E490860704785
:101B500002460020984B586820F47C1042EA0103AA
:101B60001843954B58607047964908667047014680
:101B70000020914A506820F00300084350607047ED
:101B80008D48406800F00C007047014600208A4AEA
:101B9000506820F0F0000843506070470146002074
:101BA000854A506820F4E060084350607047014661
:101BB0000020814A506820F4605040EAC100506023
:101BC000704729B17C4A527A02437B4B5A7204E037
:101BD000794A527A8243784B5A7270477A49086040
:101BE000704701460020744A506820F44040084382
:101BF000506070470021754A11706F4A82F82010BA
:101C0000012802D0042808D103E001216F4A117095
:101C100004E005216D4A117000E000BF00BF70476D
:101C20006B49086070476449096A0143624A11625E
:101C30007047674944390860704730B50021002279
:101C4000002400235C4D6D6805F00C0121B10429CE
:101C500005D0082923D105E05E4D056022E05D4DE9
:101C600005601FE0544D6D6805F47012524D6D68AB
:101C700005F48034022505EB92421CB9564D5543BC
:101C800005600BE04C4D6D6815F4003F03D0524DDC
:101C90005543056002E04F4D5543056002E04D4D50
:101CA000056000BF00BF444D6D6805F0F0010909F3
:101CB0004A4D6B5C0568DD4045603F4D6D6805F43D
:101CC000E061090A454D6B5C4568DD4085603A4D31
:101CD0006D6805F46051C90A404D6B5C4568DD4094
:101CE000C560354D6D6805F44041890B3C4D6B5C1A
:101CF000C568B5FBF3F5056130BD29B12E4A5269BF
:101D000002432D4B5A6104E02B4A526982432A4B0D
:101D10005A61704729B1284A92690243264B9A6159
:101D200004E0254A92698243234B9A61704729B1A6
:101D3000214AD2690243204BDA6104E01E4AD2698B
:101D400082431D4BDA61704729B11B4AD2680243B6
:101D5000194BDA6004E0184AD2688243164BDA6005
:101D6000704729B1144A12690243134B1A6104E007
:101D7000114A12698243104B1A6170471449403965
:101D8000086070470F49C86470470B49C8717047B5
:101D90000948406A40F08070074948627047014630
:101DA0000020054A92680A4201D0012000E000208C
:101DB0007047014988727047001002400000FFF828
:101DC000FFFFF6FE00004242D800424220100240CF
:101DD0008004424200127A0000093D002CC000201D
:101DE0003CC0002010B50446FB48844209D10121C3
:101DF0008803FFF7A9FF00214FF48040FFF7A4FFFD
:101E000032E0F648844209D101214804FFF7A9FFD6
:101E100000214FF40030FFF7A4FF25E0F048844292
:101E200009D101218804FFF79CFF00214FF4802095
:101E3000FFF797FF18E0EB48844209D10121C8045D
:101E4000FFF78FFF00214FF40020FFF78AFF0BE020
:101E5000E548844208D101210805FFF782FF0021EF
:101E60004FF48010FFF77DFF10BD2DE9F04786B0DD
:101E700005460E460024A24600BFA1460027B089B1
:101E800000B100BF2F462C8A4CF6FF700440F0884A
:101E900004432C82AC894EF6F3100440B08831899B
:101EA0000843718908430443AC81AC8A4FF6FF4074
:101EB0000440B0890443AC8201A8FFF7BEFEC648C7
:101EC000874202D1DDF810A001E0DDF80CA0A8895E
:101ED00010F4004F08D00AEBCA0000EB0A1031687A
:101EE0004900B0FBF1F807E00AEBCA0000EB0A106A
:101EF00031688900B0FBF1F86420B8FBF0F0040110
:101F00002009642101FB1089A88910F4004F08D032
:101F1000322000EBC900B0FBF1F000F007000443F1
:101F200008E0322000EB09106421B0FBF1F000F072
:101F30000F0004432C8106B0BDE8F0874FF4165122
:101F4000016000218180C18001810C21418100213B
:101F50008181704710B502460020108A4FF2FF03BE
:101F600018400B884C8823438C882343CC88234318
:101F70001843108210BD0021018041808180C18002
:101F8000704721B1828942F40052828104E0828943
:101F90004DF6FF731A4082817047F0B50346002466
:101FA000002600250020A1F510676A3F00D100BF80
:101FB0001846C1F3421401F01F06012707FA06F57F
:101FC000012C01D10C3004E0022C01D1103000E0D2
:101FD00014301AB107682F43076002E00768AF4367
:101FE0000760F0BD1AB1838A0B43838202E0838AC3
:101FF0008B4383827047028A4FF6F0731A40028245
:10200000028A0A430282704782894FF2FF731A40A4
:10201000828182890A438281704721B1828942F09C
:102020000202828104E082894FF6FD731A408281A8
:102030007047028A4FF6DF731A400282028A0A430F
:102040000282704721B1028A42F48042028204E097
:10205000028A4BF6FF731A4002827047C1F30802EE
:102060008280704701468888C0F3080070478189E4
:1020700041F0010181817047028BD2B20283028B51
:1020800042EA012202837047028B02F47F420283FC
:10209000028B0A430283704721B1828A42F02002F8
:1020A000828204E0828A4FF6DF731A408282704790
:1020B00021B1828A42F01002828204E0828A4FF6C5
:1020C000EF731A408282704721B1828A42F008027F
:1020D000828204E0828A4FF6F7731A408282704748
:1020E00021B1828942F40042828103E08289C2F3F5
:1020F0000E028281704721B1828A42F4006282829C
:1021000004E0828A4FF2FF731A4082827047828A0B
:102110004FF6FB731A408282828A0A43828270479A
:1021200021B1828A42F00202828204E0828A4FF662
:10213000FD731A408282704702460020B1F5007F8D
:1021400000D100BF13880B4201D0012000E0002025
:10215000704701F40072B2F5007F00D100BFCA439E
:102160000280704770B5024600240023002500203D
:10217000A1F510666A3E00D100BFC1F3421501F01F
:102180001F03012606FA03F3012D02D1968933407D
:1021900006E0022D02D1168A334001E0968A3340D0
:1021A0000C12012606FA04F41688344013B10CB15F
:1021B000012000E0002070BD10B500220023A1F531
:1021C00010646A3C00D100BF0A1201249440A3B2FB
:1021D000DC43048010BD0000003801400044004092
:1021E00000480040004C00400050004010B504463C
:1021F000FE48844208D10121C014FFF7A5FD00214B
:10220000E014FFF7A1FDC4E0B4F1804F08D1012133
:102210000846FFF7A6FD00210120FFF7A2FDB8E068
:10222000F348844208D101210220FFF79AFD0021E2
:102230000220FFF796FDACE0EE48844208D1012170
:102240000420FFF78EFD00210420FFF78AFDA0E0A7
:10225000E948844208D101210820FFF782FD0021CE
:102260000820FFF77EFD94E0E448844208D1012174
:102270001020FFF776FD00211020FFF772FD88E0A7
:10228000DF48844208D101212020FFF76AFD0021A8
:102290002020FFF766FD7CE0DA48844208D1012166
:1022A0004014FFF751FD00216014FFF74DFD70E071
:1022B000D548844209D10121C804FFF745FD00211A
:1022C0004FF40020FFF740FD63E0D048844209D17D
:1022D00001210805FFF738FD00214FF48010FFF7BA
:1022E00033FD56E0CA48844209D101214805FFF771
:1022F0002BFD00214FF40010FFF726FD49E0C548F3
:10230000844208D101214020FFF72BFD002140200D
:10231000FFF727FD3DE0C048844208D1012180201D
:10232000FFF71FFD00218020FFF71BFD31E0BB48B8
:10233000844208D101218015FFF713FD0021A0156B
:10234000FFF70FFD25E0B648844209D101210804BA
:10235000FFF7FAFC00214FF48030FFF7F5FC18E09E
:10236000B048844209D101214804FFF7EDFC002167
:102370004FF40030FFF7E8FC0BE0AB48844208D193
:1023800001218804FFF7E0FC00214FF48020FFF7D3
:10239000DBFC10BD00220288944B98420ED0994B72
:1023A00098420BD0B0F1804F08D0914B984205D0A5
:1023B000904B984202D0904B984204D14FF68F73C5
:1023C0001A404B881A438D4B984207D08C4B984249
:1023D00004D04FF6FF431A40CB881A4302808B8803
:1023E00083850B880385814B98420BD0854B98429F
:1023F00008D08B4B984205D08A4B984202D08A4B2A
:10240000984201D10B7A038601238382704770B50D
:10241000002400220023058C4FF6FE76354005840B
:10242000028C8388048B4FF68F752C40B51E2C4090
:102430000D882C43751E2A400D892A434D882A4356
:102440006A4DA8420BD06F4DA84208D0744DA842E7
:1024500005D0744DA84202D0734DA84213D14FF657
:10246000F7752A404D892A434FF6FB752A408D881F
:102470002A434FF6FF652B404FF6FF552B408D89C1
:102480002B43CD892B4383800483CD8885860284AA
:1024900070BD70B5002400220023058C4FF6EF7646
:1024A00035400584028C8388048B48F6FF752C40E8
:1024B0004FF6FF452C400D884FF6FF7606EA0525BE
:1024C0002C434FF6DF752A400D8906EA05152A438D
:1024D0004D8806EA05152A43444DA84202D0494DCD
:1024E000A8421DD14FF67F752A404D894FF6FF76E1
:1024F00006EA05152A434FF6BF752A408D8806EA7D
:1025000005152A434FF6FF352B404FF2FF752B4040
:102510008D8906EA85052B43CD8906EA85052B437F
:1025200083800483CD880587028470BD70B5002444
:1025300000220023058C4FF6FF6635400584028C8F
:102540008388848B4FF68F752C404FF6FC752C409A
:102550000D882C434FF6FF552A400D894FF6FF7624
:1025600006EA05252A434D8806EA05252A431F4D1C
:10257000A84202D0234DA8421DD14FF2FF752A4038
:102580004D894FF6FF7606EA05252A434FF6FF35BB
:102590002A408D8806EA05252A434EF6FF752B4012
:1025A0004DF6FF752B408D8906EA05152B43CD8925
:1025B00006EA05152B4383808483CD8885870284B2
:1025C00070BD70B5002200230024058C4EF6FF7606
:1025D00035400584038C8488828B48F6FF752A4039
:1025E0004FF6FF452A400D8820E00000002C0140F6
:1025F0000004004000080040000C004000100040B3
:102600000014004000340140004C014000500140E3
:102610000054014000180040001C00400020004011
:102620000040014000440140004801404FF6FF7661
:1026300006EA05252A434DF6FF752B400D8906EA6B
:1026400005352B434D8806EA05352B43FA4DA84244
:1026500002D0FA4DA84208D14BF6FF752C408D8967
:102660004FF6FF7606EA85152C4384808283CD8859
:10267000A0F84050038470BD828B4FF2FF331A40A4
:102680008283828B4FF6FF7303EA01231A4382830E
:102690007047F0B50C461546002200210026078C35
:1026A0004EF6FF7C07EA0C070784828B018C4FF6FD
:1026B000FF7707EA043640F6FF473A404FF6FF77C8
:1026C00007EA05273A434FF6FF7707EA03373A430D
:1026D000D94FB8420ED0D94FB8420BD0B0F1804F8D
:1026E00008D0D74FB84205D0D64FB84202D0D64F07
:1026F000B84206D14DF6FF77394046F4805739434A
:1027000005E047F6FF57394044F480573943828348
:102710000184F0BD828B4FF6F3731A408283828B63
:102720000A4382837047F0B50C461546002200210B
:102730000026078C4FF6FF6C07EA0C070784828B94
:10274000018C4FF6FF7707EA04264FF60C773A40E4
:102750004FF6FF7707EA03172F433A43B64FB842C5
:102760000ED0B64FB8420BD0B0F1804F08D0B44F66
:10277000B84205D0B34FB84202D0B34FB84206D1E9
:102780004FF6FF57394046F48077394305E04FF262
:10279000FF57394044F48077394382830184F0BD88
:1027A000028B4FF2FF331A400283028B4FF6FF7306
:1027B00003EA01231A4302837047F0B50C4615461D
:1027C000002200210026078C4FF6EF7C07EA0C0759
:1027D0000784028B018C4FF6FF7707EA041640F658
:1027E000FF473A404FF6FF7707EA03373A434FF681
:1027F000FF7707EA05273A438F4FB8420ED08F4F35
:10280000B8420BD0B0F1804F08D08D4FB84205D000
:102810008C4FB84202D08C4FB84206D14FF6DF77CA
:10282000394046F01007394305E04FF65F773940ED
:1028300044F01007394302830184F0BD028B4FF648
:10284000F3731A400283028B0A4302837047F0B588
:102850000C46154600220021068C4FF6FE773E40BE
:102860000684028B018C4FF60C7632407E1C06EA01
:1028700003162E433243704EB0420ED06F4EB0421C
:102880000BD0B0F1804F08D06D4EB04205D06D4EE8
:10289000B04202D06C4EB04206D14FF6FD763140C8
:1028A00044F00106314305E04FF6F576314044F03F
:1028B0000106314302830184F0BD70B505460C4624
:1028C0005D4885420ED05D4885420BD0B5F1804F02
:1028D00008D05B48854205D05A48854202D05A4804
:1028E000854200D100E000BF208850B92389A2882A
:1028F00061882846FFF7ABFFE1882846FFF79EFF77
:1029000025E0208804280AD12389A28861882846E6
:10291000FFF753FFE1882846FFF742FF17E02088C2
:1029200008280AD12389A28861882846FFF7FBFE80
:10293000E1882846FFF7EEFE09E02389A288618836
:102940002846FFF7A6FEE1882846FFF795FE70BDF2
:102950002DE9F04105460C4600260127608808B99C
:10296000022600E00026A088012801D1022700E00D
:1029700001272088A0B92389A28861882846FFF70B
:1029800066FFE1882846FFF759FF23893A4631461A
:102990002846FFF712FFE1882846FFF701FF13E002
:1029A0002389A28861882846FFF707FFE188284627
:1029B000FFF7F6FE23893A4631462846FFF747FFE0
:1029C000E1882846FFF73AFFBDE8F0810A884B8886
:1029D0001A438B881A43CB881A430B891A434B89B5
:1029E0001A438B891A43A0F8442070474FF6FF71B1
:1029F000818000210180C1804180017270470021E7
:102A0000018041808180C180018141818181C181BA
:102A10007047002101804180012181800021C18017
:102A2000018170470021018041808180C180018146
:102A30004181818170470000002C01400034014039
:102A40000004004000080040000C004021B1028852
:102A500042F00102028004E002884FF6FE731A4041
:102A60000280704731B1B0F8442042F40042A0F82F
:102A7000442005E0B0F84420C2F30E02A0F8442040
:102A800070471AB183890B43838102E083898B43AA
:102A9000838170478182704741EA0203A0F8483081
:102AA00070471AB183890B43838102E083898B438A
:102AB0008381704701894FF6F87211400181704798
:102AC0000A46002101894FF68F7319401143018195
:102AD000704730B504460D4629462046FFF7F0FF03
:102AE000208940F00700208130BD2DE9F0410446E7
:102AF0000D4616461F46602D06D13B460122314643
:102B00002046FFF75AFE05E03B46012231462046AB
:102B1000FFF79DFE29462046FFF7D2FF208940F0AF
:102B200007002081BDE8F08130B50C460021018905
:102B3000C9B24FF6FF7505EA03251543254329431E
:102B4000018130BD2DE9F04105460E4617469846F5
:102B5000002443463A4631462846FFF7E5FF2C89D4
:102B60004FF6F870044044F007044FF68F700440AD
:102B700044F070042C81BDE8F081F0B504460D46A8
:102B800016461F463B46324629462046FFF7CCFFF5
:102B9000208940F480402081F0BD01858282704709
:102BA0000A46002101884FF68F73194011430180B6
:102BB0007047F0B50C4615461E4600210022002342
:102BC0000189028B038C4FF6F877394021434FF689
:102BD000FC473A4040F201173A434FF6DD773B405D
:102BE0004FF6FF7707EA06172F433B430181028325
:102BF0000384F0BD0A460021018B4FF68F73194004
:102C00001143018370470A460021018B48F6FF7388
:102C100019404FF6FF7303EA0223194301837047FB
:102C20000A460021818B4FF68F731940114381832F
:102C300070470A460021818B48F6FF7319404FF612
:102C4000FF7303EA022319438183704721B102888D
:102C500042F08002028004E002884FF67F731A403F
:102C60000280704721B1828842F00402828004E031
:102C700082884FF6FB731A408280704721B18288A8
:102C800042F00802828004E082884FF6F7731A400F
:102C90008280704721B1828842F00102828004E084
:102CA00082884FF6FE731A40828070470A460021E0
:102CB000018B4FF6F77319401143018370470A46A1
:102CC0000021018B4FF2FF7319404FF6FF7303EAA7
:102CD00002231943018370470A460021818B4FF676
:102CE000F77319401143818370470A460021818B95
:102CF0004FF2FF7319404FF6FF7303EA02231943A3
:102D0000818370470A460021018B4FF6FB731940FF
:102D10001143018370470A460021018B4FF6FF33B0
:102D200019404FF6FF7303EA0223194301837047EA
:102D30000A460021818B4FF6FB73194011438183B2
:102D400070470A460021818B4FF6FF3319404FF63A
:102D5000FF7303EA02231943818370470A46002167
:102D6000018B4FF67F7319401143018370470A4668
:102D70000021018BC1F30E014FF6FF7303EA02231A
:102D80001943018370470A460021818B4FF67F73F8
:102D900019401143818370470A460021818BC1F39A
:102DA0000E014FF6FF7303EA022319438183704734
:102DB0000A460021018C4FF6FD731940114301842E
:102DC00070470A460021018C4FF6F77319401143F2
:102DD000018470470A460021018C4FF6DF731940C9
:102DE0004FF6FF7303EA02131943018470470A4642
:102DF0000021018C4FF67F7319404FF6FF7303EAF1
:102E000002131943018470470A460021018C4FF6D2
:102E1000FF5319404FF6FF7303EA0223194301845D
:102E200070470A460021018C4FF2FF7319404FF69C
:102E3000FF7303EA02231943018470470A46002105
:102E4000018C4DF6FF7319404FF6FF7303EA02330E
:102E500019430184704730B5002301248C40A3B28C
:102E6000048C9C430484048C02FA01F5ADB22C431B
:102E7000048430BD30B5002304248C40A3B2048CFC
:102E80009C430484048C02FA01F5ADB22C43048403
:102E900030BD70B5034600200024184618300125C7
:102EA0008D40ACB21D8CA5431D8409B1082909D100
:102EB00000EB6100056825F07005056005681543A5
:102EC00005600EE00D1FC5F34E052844056825F486
:102ED000E045056005684FF6FF7606EA02263543B1
:102EE000056070BD21B1028842F00202028004E058
:102EF00002884FF6FD731A400280704721B10288A4
:102F000042F00402028004E002884FF6FB731A408C
:102F10000280704721B1828842F08002828004E002
:102F200082884FF67F731A408280704702884FF67E
:102F3000F7731A40028002880A4302807047828831
:102F40004FF68F731A40828082880A4382807047CE
:102F500002894FF6F8731A40028102890A430281FE
:102F6000704702894FF67F731A40028102890A4333
:102F700002817047818470478185704781867047E0
:102F80000187704781877047A0F84010704702881A
:102F90004FF6FF431A40028002880A4302807047BE
:102FA0000146888E70470146088F70470146888F1A
:102FB00070470146B1F8400070470146888C704761
:102FC0000146088D704702460020138A0B4201D04B
:102FD000012000E000207047CA430282704730B5EC
:102FE0000246002000230024158A05EA0103958982
:102FF00005EA010413B10CB1012000E0002030BD4E
:10300000CA4302827047000030B943F2DB014FF03F
:10301000204242F8201005E043F2D2014FF0204256
:1030200042F820106FF07042411C4FF0204343F8EB
:10303000212011461A4602EB8002C2F804117047A3
:1030400010280AD118214FF0204211664021516604
:103050004FF0FC319166D16610E01821F84A1160FA
:103060004FF040014FF02042C2F884104FF0FC3185
:10307000F44A11604FF02042C2F88C1070471820BB
:10308000F14908604FF000004FF02041C1F8A40062
:103090004FF0FC30ED49086001F10401086001F1D6
:1030A000040108607047D0E901121143C26811435E
:1030B000026911434269114382691143C269114394
:1030C000026A1143426A1143826A1143C26A114380
:1030D000026B11434FF02043026843F822108168CD
:1030E000082908D11A46016852F8211041F0400120
:1030F000026843F82210416B0968426B526841EA4A
:103100000211426B926841EA0221426B928941EAC4
:103110000241426B128A41EA0251426B127D41EA3E
:103120000261426B926911430268521C4FF02043C6
:1031300043F82210C16AB1F5804F1AD1816B09683A
:10314000826B526841EA0211826B926841EA022165
:10315000826B128A41EA0251826B127D41EA02615E
:10316000826B92691143026803EB8202C2F8041178
:1031700008E06FF070414FF02043026803EB8202D9
:10318000C2F80411704730B50021002200234468C2
:1031900044F0080485682C43C5682C4305692C431A
:1031A000456944EA4524856944EA4531C46924688F
:1031B000C5696D6844EA0524C5692D8944EA05445A
:1031C000C5692D7B44EA0562046A2468056A6D6856
:1031D00044EA0524056A2D8944EA0544056A2D7BE5
:1031E00044EA05630468102C05D14FF020442166A1
:1031F000A266E36607E0924C21604FF02044C4F8D9
:103200008820934C236030BD016841F01001426872
:1032100041EA4221826841EA42318B4A1160C16829
:103220000968C268526841EA0221C268128941EA0B
:103230000241C268127B41EA0261844A116001695D
:1032400009680269526841EA02210269128941EA69
:1032500002410269127B41EA02617E4A11604169C2
:1032600009684269526841EA02214269128941EAC9
:1032700002414269127B41EA02614FF02042C2F8EA
:10328000B01070470021016002214160002181607F
:10329000C160016141618161C16101624FF480518E
:1032A0004162490081620021C16201630F21426BCA
:1032B0001160426B5160FF21426B91600F21426BA4
:1032C000D160426B1161426B51610021426B91618F
:1032D0000F21826B1160826B5160FF21826B9160C4
:1032E0000F21826BD160826B1161826B5161002171
:1032F000826B916170471021016000214160816003
:10330000C160016141618161FC21C2691160C269D2
:103310005160C2699160C269D160026A1160026A3B
:103320005160026A9160026AD160704700210160B9
:1033300041608160FC21C2681160C2685160C2684E
:103340009160C268D16002691160026951600269CE
:1033500091600269D16042691160426951604269BD
:1033600091604269D160704751B14FF0204252F8EC
:10337000202042F001024FF0204343F8202009E0D2
:103380004FF0204252F82020334B1A404FF0204398
:1033900043F82020704799B1102808D14FF02042FF
:1033A000126E42F004024FF020431A661DE0244AD8
:1033B000126842F004024FF02043C3F8802014E06A
:1033C000102809D14FF02042126E234BDB1E1A4009
:1033D0004FF020431A6608E0194A12681F4B02EAB0
:1033E00003024FF02043C3F88020704740B11649D4
:1033F000096841F004014FF02042C2F8A01008E033
:1034000011490968154A01EA02014FF02042C2F849
:10341000A010704799B1102808D14FF02042126EC9
:1034200042F040024FF020431A662DE0044A126831
:1034300042F040024FF02043C3F8802024E00FE028
:10344000800000A0880000A0A00000A0A80000A0AC
:103450008C0000A0AC0000A0FEFF0F00FBFF0F00DF
:10346000102808D14FF02042126E684B1A404FF0DE
:1034700020431A6608E0664A1268644B02EA0302B7
:103480004FF02043C3F880207047014600201029E8
:1034900003D14FF02042506F01E05E4A1068704740
:1034A00010B5F2B1102807D14FF020435B6E0B43EB
:1034B0004FF02044636632E0B0F5807F08D1564B70
:1034C0001B6843EA01034FF02044C4F8843026E02F
:1034D000524B1B6843EA01034FF02044C4F8A43068
:1034E0001DE0102807D14FF020435B6E8B434FF057
:1034F0002044636613E0B0F5807F08D1464B1B681B
:1035000023EA01034FF02044C4F8843007E0434B22
:103510001B6823EA01034FF02044C4F8A43010BD17
:1035200010B5024600200023102A03D14FF020449A
:10353000636E07E0B2F5807F02D1374C236801E06B
:10354000364C23680B4201D0012000E0002010BD62
:10355000102807D14FF02042526E8A434FF020438B
:103560005A6613E0B0F5807F08D12B4A126822EA30
:1035700001024FF02043C3F8842007E0274A126875
:1035800022EA01024FF02043C3F8A420704770B52F
:1035900002460020002300240025102A03D14FF00A
:1035A0002046736E07E0B2F5807F02D11A4E336871
:1035B00001E01A4E336803EA010403EAD10514B1AD
:1035C0000DB1012000E0002070BD102808D14FF09F
:1035D0002042526E22EAD1024FF020435A6613E095
:1035E000B0F5807F08D10C4A126822EAD1024FF070
:1035F0002043C3F8842007E0084A126822EAD10277
:103600004FF02043C3F8A42070470000BFFF0F0015
:10361000800000A0940000A0840000A0A40000A0EE
:1036200010B58CB004461E230BAA03A9204600F057
:1036300011FE0090009810B101200CB010BD9DF853
:103640002C00044400200B900EE05E489DF82C20D6
:1036500050F8221003A800F065FD00B908E09DF8BD
:103660002C00401CC0B20B909DF82C000828ECDB0D
:1036700000BF9DF82C00072879D2DFE800F0040590
:10368000395B8BA2A10000BF4FA002F0D7F84FA07A
:1036900002F0D4F85DA002F0D1F86CA002F0CEF8F0
:1036A0007AA002F0CBF889A002F0C8F897A002F047
:1036B000C5F8A4A002F0C2F8A9A002F0BFF8AEA01D
:1036C00002F0BCF8B2A002F0B9F8B7A002F0B6F868
:1036D000BBA002F0B3F8C1A002F0B0F8CCA002F099
:1036E000ADF8D8A002F0AAF8E3A002F0A7F8A5E28E
:1036F00035A002F0A3F8F0A002F0A0F800200B9093
:103700000EE0FD4800689DF82C2000EBC2004168E7
:10371000FAA002F093F89DF82C00401CC0B20B9068
:10372000F548007D9DF82C108842EADC26A002F0C6
:1037300085F883E224A002F081F8F2A002F07EF87E
:1037400000200B901CE0EC4909689DF82C2001EB4F
:10375000C20101AB02AA486803A900F0A0FDE64837
:1037600000689DF82C1050F8312003A900E063E2B6
:10377000F4A002F063F89DF82C00401CC0B20B903E
:10378000DD48007D9DF82C108842DCDC0EA002F0A4
:1037900055F853E20CA002F051F80BAA03A92046F9
:1037A00000F054FE9DF82C0040B9694603A800F0D3
:1037B000ECFC0B909DF82C0008B9CDE1DEE1D0E1E6
:1037C0000DE2E1E140C000200D0A00002D2D2D2D5D
:1037D0002D2D2D2D2D2D2D2D2D2D2D2D2D2D2D2D19
:1037E0002D2D2D2D55534D4152542056322E382D0E
:1037F0002D2D2D2D2D2D2D2D2D2D2D2D2D2D2D2DF9
:103800002D2D2D2D2D2D2D200D0A000020202020C6
:1038100055534D415254CAC7D3C9414C49454E54E2
:10382000454BBFAAB7A2B5C4D2BBB8F6C1E9C7C958
:10383000B5C4B4AEBFDAB5F7CAD4BBA5BDBBD7E932
:10384000BCFE2CCDA8B9FD200D0A0000CBFC2CC479
:10385000E3BFC9D2D4CDA8B9FDB4AEBFDAD6FACA97
:10386000D6B5F7D3C3B3CCD0F2C0EFC3E6B5C4C866
:10387000CEBACEBAAFCAFD2CB2A2D6B4D0D02ED218
:10388000F2B4CB2CC4E3BFC90D0A0000D2D4CBE6FE
:10389000D2E2B8FCB8C4BAAFCAFDB5C4CAE4C8EB3A
:1038A000B2CECAFD28D6A7B3D6CAFDD7D6283130A6
:1038B0002F3136BDF8D6C629A1A2D7D6B7FBB4AEF4
:1038C000A1A2BAAFCAFDC8EB0D0A0000BFDAB5D895
:1038D000D6B7B5C8D7F7CEAAB2CECAFD292CB5A5A2
:1038E000B8F6BAAFCAFDD7EEB6E0D6A7B3D6313038
:1038F000B8F6CAE4C8EBB2CECAFD2CB2A2D6A7B3C2
:10390000D6BAAFCAFDB7B5200D0A0000BBD8D6B5F0
:10391000CFD4CABE2ED0C2D4F6B2CECAFDCFD4CA3E
:10392000BEBDF8D6C6C9E8D6C3B9A6C4DC2CD0C281
:10393000D4F6BDF8D6C6D7AABBBBB9A6C4DC2E0D3B
:103940000A000000BCBCCAF5D6A7B3D63A77777791
:103950002E6F70656E6564762E636F6D0D0A0000C4
:1039600055534D415254D3D036B8F6CFB5CDB3C32D
:10397000FCC1EE3A0D0A00003F3A20202020BBF1A6
:10398000C8A1B0EFD6FAD0C5CFA20D0A0000000042
:1039900068656C703A20BBF1C8A1B0EFD6FAD0C50B
:1039A000CFA20D0A000000006C6973743A20BFC9F1
:1039B000D3C3B5C4BAAFCAFDC1D0B1ED0D0A0A0078
:1039C00069643A202020BFC9D3C3BAAFCAFDB5C4C9
:1039D0004944C1D0B1ED0D0A0A0000006865783A8B
:1039E0002020B2CECAFD3136BDF8D6C6CFD4CABE6D
:1039F0002CBAF3B8FABFD5B8F12BCAFDD7D6BCB4F0
:103A0000D6B4D0D0BDF8D6C6D7AABBBB0D0A0A0023
:103A10006465633A2020B2CECAFD3130BDF8D6C607
:103A2000CFD4CABE2CBAF3B8FABFD5B8F12BCAFDB1
:103A3000D7D6BCB4D6B4D0D0BDF8D6C6D7AABBBBF7
:103A40000D0A0A00C7EBB0B4D5D5B3CCD0F2B1E0C3
:103A5000D0B4B8F1CABDCAE4C8EBBAAFCAFDC3FB63
:103A6000BCB0B2CECAFDB2A2D2D4BBD8B3B5BCFCF6
:103A7000BDE1CAF82E0D0A002D2D2D2D2D2D2D2D39
:103A80002D2D2D2D2D2D2D2D2D2D2D2D2D2D2D2D66
:103A90002D2D414C49454E54454B2D2D2D2D2D2D71
:103AA0002D2D2D2D2D2D2D2D2D2D2D2D2D2D2D2D46
:103AB0002D2D2D200D0A00002D2D2D2D2D2D2D2DE0
:103AC0002D2D2D2D2D2D2D2D2D2D2D2D2D2D2D2D26
:103AD0002DBAAFCAFDC7E5B5A52D2D2D2D2D2D2D48
:103AE0002D2D2D2D2D2D2D2D2D2D2D2D2D2D2D2D06
:103AF0002D2D2D2D200D0A00D0C0002025730D0A7C
:103B0000000000002D2D2D2D2D2D2D2D2D2D2D2D99
:103B10002D2D2D2D2D2D2D2D2D2D2D2D2DBAAFCA29
:103B2000FD204944202D2D2D2D2D2D2D2D2D2D2DDC
:103B30002D2D2D2D2D2D2D2D2D2D2D2D2D2D2D2DB5
:103B4000200D0A0025732069642069733A0D0A303C
:103B500058253038580D0A00F9A0009901F06EFE82
:103B60000EE09DF82C00042801D0022065E5F7A0A6
:103B700001F064FE0120FA49C87501E002205CE50D
:103B8000F1A001F05BFE59E0EFA001F057FE0BAA97
:103B900003A9204600F05AFC9DF82C00C8B96946DC
:103BA00003A800F0F2FA0B909DF82C0020B9EDA0CC
:103BB000009901F043FE0EE09DF82C00042801D08E
:103BC00002203AE5EAA001F039FE0020E449C87578
:103BD00001E0022031E5DCA001F030FE2EE0DAA0A9
:103BE00001F02CFE0BAA03A9204600F02FFC9DF843
:103BF0002C00D8B9694603A800F0C7FA0B909DF8CD
:103C00002C0088B9D648C07D012806D1009801460D
:103C10000268DCA001F012FE0AE00098014602688A
:103C2000DCA001F00BFE03E0022006E5022004E523
:103C3000C5A001F003FE01E00120FEE400BF00206A
:103C4000FBE410B501218807FFF7C9F910B1C44999
:103C50000869804701218807FFF7D2F910BD7FB5B9
:103C600005460C4601210846FEF761F8ADF80850FC
:103C7000ADF804400020ADF80A00ADF8060001A937
:103C80004FF08040FEF786FB012241218807FEF7B6
:103C9000F8FE1C208DF8000003208DF801008DF83F
:103CA000020001208DF803006846FDF726FC012183
:103CB0008807FEF7CBFE7FBD10B5044604EBC400B9
:103CC00000EB04100122C2EB800081B24FF47A7045
:103CD000FFF7C5FF0120A249C87510BD30B595B0EA
:103CE000054613AB12AA09A9284600F0D8FA0446E3
:103CF00014B1204615B030BD0020149026E098493C
:103D000009689DF8502001EBC20113AB11AA486865
:103D100001A900F0C4FA04460CB12046EAE709A95B
:103D200001A800F0FFF960B99DF844009DF8481023
:103D3000884201DD0220DDE79DF850008849887542
:103D40000AE09DF85000401CC0B214908448007DE9
:103D50009DF850108842D2DC00BF8148007D9DF85C
:103D60005010884201D10420C4E714A9284600F06D
:103D7000D8FB04460CB12046BCE79DF850007849BA
:103D800048750020B6E7F0B59BB07548847D007D8E
:103D9000A04201DC1BB0F0BD7149096801EBC40110
:103DA00007AB08AA486809A900F079FA09A97CA01C
:103DB00001F044FD002644E06948018B0120B04039
:103DC00001421BD0222178A001F038FD304600F0DE
:103DD0009BFB634924314718394674A001F02EFD3E
:103DE000222171A001F02AFD304600F08DFB5C49D4
:103DF0002431084411A941F8260018E0304600F0AB
:103E000083FB57492431085811A941F8260054482A
:103E1000C07D30B911A850F8261065A001F00EFD44
:103E200005E011A850F8261062A001F007FD9DF8EA
:103E30002000401EB04202D060A001F0FFFC701CC8
:103E4000C6B29DF820008642B6DB5DA001F0F6FC0C
:103E50004348407D0B280DD2DFE800F0060D151E0B
:103E600027323F4E5FB4C9003D49096851F834001C
:103E700080470546D2E03A4A126852F83410119849
:103E800088470546CAE0364B1B6853F83420DDE905
:103E9000110190470546C1E0314F3F6857F8343073
:103EA00011A807C898470546B8E0DFF8B4C0DCF8A9
:103EB00000C05CF8347011A80FC8B8470546ADE0E3
:103EC0001598DFF89CC00090DCF800C05CF83470F6
:103ED00011A80FC8B8470546A0E0DDE91501DFF8D5
:103EE00080C0CDE90001DCF800C05CF8347011A896
:103EF0000FC8B847054691E0DDE915121798DFF8BD
:103F000060C0CDE900120290DCF800C05CF83470AB
:103F100011A80FC8B847054680E0DDE91523DDE9A3
:103F20001710DFF83CC0CDE90023CDE90210DCF822
:103F300000C05CF8347011A80FC8B84705466DE0A2
:103F40004845583A305825580D0A00003136BDF81A
:103F5000D6C6B2CECAFDCFD4CABE210D0A0000001B
:103F6000D0C000204445433A256C750D0A0000007E
:103F70003130BDF8D6C6B2CECAFDCFD4CABE210DEF
:103F80000A0000002A2830582558293D3058255865
:103F90000D0A00002A282564293D25640D0A000029
:103FA0000D0A25732800000025630000257300001A
:103FB000256C750030582558000000002C000000CA
:103FC00029000000DDE91623DDE91810CDE9012301
:103FD000CDE903101598DFF8F4C00090DCF800C0BC
:103FE0005CF8347011A80FC8B847054616E0DDE943
:103FF000183217991A98CDE9033202910590DDE93C
:104000001501DFF8C8C0CDE90001DCF800C05CF89C
:10401000347011A80FC8B847054600BF00BF9DF80F
:104020001C0001280CD12948C07D20B9294628A0B0
:1040300001F004FC07E0294627A001F0FFFB02E0A5
:1040400024A001F0FBFB00BFA4E670B52548008862
:1040500010F4004F33D023480578002022494855FA
:104060001A4881682048884704461CB91749C8681F
:10407000804721E01C48FFF7D3FA0546012D00D008
:104080002C46CCB1012C06D0022C08D0032C0AD02F
:10409000042C10D10BE015A001F0D0FB0BE016A012
:1040A00001F0CCFB07E017A001F0C8FB03E018A06B
:1040B00001F0C4FB00BF00BF00200A49088070BDAA
:1040C000014608687047016070470000D0C00020BA
:1040D0003D256C753B0D0A003D305825583B0D0AB7
:1040E0000000000024C000201EC50020BAAFCAFD99
:1040F000B4EDCEF3210D0A00B2CECAFDB4EDCEF37D
:10410000210D0A00B2CECAFDCCABB6E0210D0A00EB
:10411000CEB4D5D2B5BDC6A5C5E4B5C4BAAFCAFD47
:10412000210D0A0002460AE010780B78984201D06F
:1041300001207047107800B902E0521C491CF3E7D7
:1041400000BF0020F5E706E002780A70027802B9A5
:1041500002E0401C491CF7E700BF70470146002001
:1041600005E00A7802B903E0421CD0B2491CF8E726
:1041700000BF704710B50246012000E050430B001D
:10418000A1F10104E1B2F9D110BD2DE9F0430746D8
:104190000E4600254FF00A083C46002030601FE024
:1041A0002078392802DC207830280ADA207846285E
:1041B00002DC2078412804DA2078582809D1012D22
:1041C00007D12078412801DB4FF01008681CC5B2E8
:1041D00005E0207800B904E00120BDE8F083641C0C
:1041E000DEE700BF3C46B8F1100F0FD1032D01DA16
:1041F0000220F2E72078302806D16078582803D1D1
:10420000A41CA81EC5B204E00320E6E70DB90420F3
:10421000E3E71BE00DB1681EC5B22078392806DC43
:104220002078302803DB2078A0F1300902E02078E4
:10423000A0F1370929464046FFF79CFF316809FB8A
:1042400000103060641C207800B900E0E2E700BF95
:104250000020C2E710B50446002010700BE0207863
:104260000870641C491C1078401C1070107898422B
:1042700001DB012010BD2078202802D02078002802
:10428000EDD10020087000BFF4E7014600E0491CB2
:104290000878202801D10029F9D1087870472DE944
:1042A000FF4F85B080468946002600200490039089
:1042B000012002904FF0000B002544461DE02078BD
:1042C000202816D005F07F00052812DA0DB945F038
:1042D000800505F07F00042803D120782A2800D02B
:1042E0000EE0207805F07F010DF80100681CC5B2D2
:1042F00002E0852D00D103E0641C20780028DED187
:1043000000BF8DB1002005F07F010DF80100C6A1AE
:104310006846FFF707FF18B900210898017002E00E
:1043200001210898017000254FF0000A44460FE073
:10433000641C0AF1010000F0FF0A2078202807D150
:104340002046FFF7A2FF0746282F01D0CDF810A086
:104350002078282802D020780028E9D14446049803
:1043600010B10498401C04444FF0000A002754E0A8
:10437000207810B94FF0010A50E02078282803D1A6
:1043800017B9701CC6B213E02078292808D13FB9AC
:1043900016B1701EC6B201E04FF0010A46B93DE009
:1043A0002078222804D10FB9012000E00020074620
:1043B00046B9207820282FD0207889F8000009F10C
:1043C000010929E020782C2804D101200290681CE2
:1043D000C5B214E02078202811D0207828280ED0EB
:1043E0004DB9BBF1050F06DA20780DF80B000BF183
:1043F000010000F0FF0B0298401CC0B20290012E99
:104400000AD10298022807D10298401CC0B202903B
:104410000398401CC0B20390641CA9E700BF039836
:10442000012809D100200DF80B007FA16846FFF795
:1044300079FE08B9002003900799039808700020BE
:1044400089F80000504609B0BDE8F08FF0B503468A
:10445000154600200022002600244FE01F782C2F54
:1044600001D104B901221F78292F01D01F780FB97B
:1044700004B944E0002E34D11F78302F02DB1F78BE
:10448000392F11DD1F78612F02DB1F78662F0BDDBE
:104490001F78412F02DB1F78462F05DD1F78582F2C
:1044A00002D01F78782F0CD102B128E01F78612F3D
:1044B00003DB1F78203F0F7001E01F780F70491C4D
:1044C00019E01F78222F04D102B118E0012601243F
:1044D00011E01F78202F0ED01F782C2F0BD0FF2635
:1044E0000DE01F78222F00D1002402B107E014B1A3
:1044F0001F780F70491C471CF8B25B1CAEE700BF69
:1045000000270F702E70F0BD02460020002105E04C
:10451000474B5B5C0344D8B24B1CD9B29142F7DBEA
:1045200070472DE9F043B5B005460F46002400263C
:1045300004E000213E488155701CC6B20A2EF8DB0B
:1045400006E06D1C287818B9012035B0BDE8F0836D
:1045500028782828F5D16D1C61E034AA69462846E0
:10456000FFF774FF064635449DF8D00020B10128BE
:1045700027D0FF284CD149E09DF8000000B333A9B3
:104580006846FFF702FE06460EB10220DDE7204630
:10459000FFF7BAFF26490A31339A0A50A1F12400E5
:1045A000008B0121A140884321491A390883042145
:1045B0001F480155601CC4B20A2C01DD0320C4E76A
:1045C00026E06846FFF7CAFD401C00F0FF082046C1
:1045D000FFF79AFF16490A3100EB01094946684680
:1045E000FFF7B1FD12481A38018B0120A0400143AA
:1045F00088B20F491A3908830D4800F80480601CFE
:10460000C4B20A2C01DD03209FE701E002209CE7F1
:1046100000BF2878292801D0287800B900E09CE75D
:1046200000BF3C70002090E7766F696400000000D6
:10463000EAC0002070477047704770477047704766
:1046400070B5044610464FF080750560051F28467A
:104650002C606FF00106051F28462E604FF01236C1
:10466000051F28462E604FF00336051F28462E6092
:104670004FF00236051F28462E607610051F28468B
:104680002E60051F284629604FF01136051F284669
:104690002E604FF01036051F28462E604FF0093669
:1046A000051F28462E604FF00836051F28462E604D
:1046B0004FF00736051F28462E604FF00636051FBF
:1046C00028462E604FF00536051F28462E604FF015
:1046D0000436051F28462E6070BD7047704770472E
:1046E00010B501F057F8044606480078401C05490B
:1046F0000870204601F052F800F04EFA00F02BF955
:1047000010BD0000CDC100207CB5002514E0694635
:10471000284600F06CFE064666B9FD4850F8254074
:1047200044B1012C06D0D4E9020100EB81006063A2
:104730000198A063681CC5B21F2DE8DD7CBD002474
:1047400002E0C82000F030FFF24800780028F8D0DE
:10475000F14800686421B0FBF1F0EF4908600846B9
:10476000006828B90020ED490870FF2000F08AFE9B
:1047700000BF01F00FF80446E9480068E949086005
:104780000020E7490860204601F008F8E548006885
:10479000E1490968B0FBF1F0C0F16400DF4908703D
:1047A000FFF74DFFFFF7B0FF642000F0FDFEE0E7EC
:1047B00000B587B0032000218022DB4BCDE9013218
:1047C000CDE903104FF6FE701E23D84A0090AFF2D9
:1047D000910000F0EAFB06AAD5A11E2000F066FDBC
:1047E00007B000BD002400BF00F0D4FF0446CC4851
:1047F0000068401CCA490860204600F0CFFFFFF760
:104800001DFFF1E700B587B0032000218022CC4BCB
:10481000CDE90132CDE903104FF6FF701F23C94ADD
:104820000090AFF23F0000F0C0FB06AAC6A11F2017
:1048300000F03CFD07B000BD704704E0002200F826
:10484000012B4A1E91B20029F8DC704730B54FF4B5
:10485000AB61C148FFF7F1FF8021AD48FFF7EDFFE5
:10486000BD4B03F14C0500240AE05D613F2083F855
:104870003C0000213D20C1544C334C35601CC4B277
:10488000112CF2D3002058613F2083F83C00002116
:104890003D20C1540020B1490860AF48B0490860CC
:1048A00030BD0022AF4B1A70AF49002004E0002257
:1048B00001F8012B421CD0B20428F8DB0022AB4BDC
:1048C0001A70AB4B1A70AB4B1A60AB4B1A60704747
:1048D0000020AA490860AA490870AA490870AA4994
:1048E0000870AA490870AA4908608D4908608D4976
:1048F00008608949086087490870704710B5FFF75C
:1049000099FEFFF7E5FFFFF7CCFFFFF79FFFFFF7EB
:1049100093FFFFF777FFFFF74BFFFFF78CFE10BD0C
:104920009A480078012808D195480078FF2804D2D9
:1049300093480078401C9249087070479549894A0D
:104940001278885C8849095C924A515C01EBC0018D
:10495000874A1170704710B500248C4800780128F0
:1049600030D100F017FF044685480078002804DDA8
:1049700083480078401E8249087081480078F0B969
:1049800080480078D8B9FFF7D9FF7948007877498F
:104990000978884213D05E487549097850F821009B
:1049A0007449086008460068806A401C096888628B
:1049B00077480068401C7649086000F007FF2046F1
:1049C00000F0ECFE10BD10B50024704800780128FE
:1049D00011D100F0DFFE04466948007840B969480B
:1049E0000078FF2804D267480078401C65490870A9
:1049F000204600F0D3FE10BD10B5002400F0CAFE22
:104A000004465F480078F0B95E480078D8B9FFF7EF
:104A100095FF5748007855490978884213D03C489B
:104A20005349097850F82100524908600846006847
:104A3000806A401C0968886255480068401C5449D7
:104A4000086000F0BEFE204600F0A8FE10BD10B5C4
:104A500000244E480078012822D100F09BFE044635
:104A600048480078002818DD46480078401E45492F
:104A700008700846007860B94148007828B9204697
:104A800000F08CFEFFF7B8FF0AE0204600F086FE3B
:104A900006E0204600F082FE02E0204600F07EFEA6
:104AA00010BD10B53948007890B9FFF747FF30487E
:104AB00000782E49087016482D49097850F82100D1
:104AC0002C490860084600682B49086000F069FE20
:104AD00010BD10B50024022000F066FD00F05AFE63
:104AE000044600200E490860204600F057FE64206E
:104AF00000F05AFD00F04EFE0446094800680649E1
:104B00000860012003490870204600F047FE10BDF0
:104B1000E8C90020CCC10020C4C10020C0C10020D1
:104B2000D8C10020C8C10020E8C50020E4C700208B
:104B300075432F4F532D4949205374617400000071
:104B4000E8C70020E4C9002075432F4F532D494981
:104B50002049646C6500000068CA0020E8C100209C
:104B6000E0C10020D1C10020D2C10020CFC100206F
:104B7000D0C10020E4C10020DCC10020F0C1002031
:104B8000CDC10020CEC10020D7C10020D6C1002059
:104B9000BCC100207267000270B50026FFF79FFDC0
:104BA00000F0F8FD064686480068401C844908600D
:104BB000304600F0F3FD83480078012852D1824846
:104BC000007820B1012804D0022809D103E0012592
:104BD0000BE0002509E0012501207B49087004E075
:104BE000012500207849087000BF00BF05B970BDDD
:104BF0007648046832E000F0CDFD0646A08B48B34D
:104C0000A08B401E0004000CA08323D1A07F10F0D5
:104C1000370F06D0A07F20F03700A0770120E07783
:104C200001E00020E077A07F10F0080F12D104F11E
:104C30002204A0786649097840EA010064490870B6
:104C400020786449085C617840EA010014F8221970
:104C5000604A50546469304600F0A0FD94F820008A
:104C60001F28C8D100BFC2E74FF48F70704770474C
:104C700005E011F8013B00F8013B531E9AB2002AEF
:104C8000F7DC70470246002005E011F8013B02F80E
:104C9000013B431CD8B20B78002BF6D11370704740
:104CA0000146002002E0491C421CD0B20A78002ACA
:104CB000F9D170472DE9F84F05460E46174698463C
:104CC000DDE90BABDDF828900020009000F062FDDC
:104CD000009041480468002C6DD004F108043E495E
:104CE000E0680860009800F059FD44F8086C2576EB
:104CF0000020A075E075A08244F804ACC4F80490CC
:104D00002760A4F808B0A4F80A806077E810A076BD
:104D100005F007006076A17E012088402077617E43
:104D200001208840E07600202062A0626062E0629C
:104D300020633F2084F83400A4F108044FF0000100
:104D40004FF03D0001552046FFF7C8FC2046FFF715
:104D500073FC00F01FFD0090204840F825401B48E0
:104D6000006860610020A0611848006810B1174811
:104D7000006884611548046004F12204A078144995
:104D8000097840EA01001249087020781149085C4E
:104D9000617840EA010014F822190E4A5054104874
:104DA000007800F101000E490870009800F0F6FC50
:104DB0000020BDE8F88F009800F0F0FC4220F8E7F2
:104DC000F0C10020D6C10020ECC10020E8C10020C5
:104DD000D1C10020D2C10020E0C10020E8C90020DC
:104DE000D7C100202DE9FE4F06460D460020009059
:104DF0001F2E04DBFF2E02D02A20BDE8FE8F1F2DC0
:104E000001DB2A20F9E700F0C5FC0090F84850F8D3
:104E1000250020B1009800F0C1FC2820EDE7FF2E0E
:104E200003D1F448006890F82060F14850F826401B
:104E300024B9009800F0B2FC2920DEE7012C04D14F
:104E4000009800F0ABFC4320D7E7EF1005F007090E
:104E50000120B84000F0FF0A012000FA09F000F03C
:104E6000FF0B0020E24941F82600084640F82540A3
:104E700094F8228094F82400029094F82300019082
:104E8000DD4810F80810019801421DD0DA4810F8EA
:104E9000080001998843D84901F80800084610F82D
:104EA000080028B9D548007802998843D34908708A
:104EB000D248007840EA0A00D0490870CE48C05D68
:104EC00040EA0B00CC49C85584F8205084F8227081
:104ED00084F8219084F824A084F823B0009800F08E
:104EE0005DFCC7480078012801D1FFF785FD00204F
:104EF00083E72DE9FE4F06460F4690461C464FF0CD
:104F000000091F2C02DD2A20BDE8FE8F00F042FCC4
:104F10008146BC480078002804DD484600F03EFC8D
:104F20003C20F1E7B24850F8240060BB0120B049B2
:104F300041F82400484600F031FC0023424639463F
:104F40003046FFF77DFB824600200090019003462B
:104F50000246514602902046FFF7ACFE054635B9A1
:104F6000A748007801280CD1FFF746FD09E000F0C2
:104F700011FC814600209E4941F82400484600F07B
:104F80000DFC2846C0E7484600F008FC2820BBE797
:104F900012F0010F08D012F0020F05D002E0491EF6
:104FA000002308C00029FAD170472DE9F04F85B0E1
:104FB00081468A4693461C46DDE90F78129D002003
:104FC00003901F2C03DD2A2005B0BDE8F08F00F010
:104FD000E1FB03908B480078002804DD039800F083
:104FE000DDFB3C20F0E7824850F8240088BB01201C
:104FF0007F4941F82400039800F0D0FB2A4641463F
:105000003846FFF7C5FF2B465A4651464846FFF73C
:1050100017FB04901198CDE9008002953A4620468E
:105020000E9B0499FFF746FE064636B97448007891
:1050300001280CD1FFF7E0FC09E000F0ABFB039086
:1050400000206B4941F82400039800F0A7FB30468C
:10505000BAE7FFE7039800F0A1FB2820B4E770B59A
:105060000546002667480078002801DD402070BD15
:105070001F2D01D13E20FAE71F2D03DBFF2D01D0AC
:105080002A20F4E700F086FB0646FF2D03D159489D
:10509000006890F82050564850F8254024B9304612
:1050A00000F07CFB4320E2E7012C04D1304600F005
:1050B00075FB3D20DBE714F8220F4F49085C61784F
:1050C000884321784C4A505414F822091146085C50
:1050D00030B994F82410494800788843474908704B
:1050E0000020A083A077E07747480078FF2804D20B
:1050F00045480078401C44490870304600F04EFB9B
:10510000FFF7B5FD00F046FB06463F480078002853
:1051100004DD3D480078401E3B4908702046FFF7FB
:105120008CFA3A480078401E38490870002030490F
:1051300041F82500A06930B90020616988613449CF
:105140006069086005E0D4E905014861D4E905100B
:1051500088613048006860612E4804603F2084F810
:105160003C0000213D200155304600F017FB24484B
:105170000078012801D1FFF73FFC002077E72DE9F7
:10518000F041044600271F2C02D13E20BDE8F081EB
:105190001F2C03DBFF2C01D02A20F7E7FF2C0BD1BB
:1051A00000F0F8FA07461348006890F82560384682
:1051B00000F0F4FA3046E9E700F0ECFA07460C4854
:1051C00050F8245025B9384600F0E8FA4320DDE7CE
:1051D000012D04D1384600F0E1FA3D20D6E73F200A
:1051E00085F82500384600F0D9FA0020CEE7000007
:1051F000E8C90020DCC10020D2C10020D1C10020BC
:10520000D6C10020CDC10020CEC10020D7C10020D2
:10521000E8C10020E0C100202DE9F04705460F4617
:1052200014464FF0000814B90020BDE8F0871F2D88
:1052300005DDFF2D03D02A2020700020F5E71FB9DF
:105240000C2020700020F0E7D1480078002803DD12
:10525000112020700020E8E700F09CFA8046FF2D26
:1052600003D1CC48006890F82050CB4850F8256016
:1052700036B9404600F092FA432020700020D4E76F
:10528000012E06D1404600F089FA4320207000200C
:10529000CBE706F13C013846FFF7F4FC8146404677
:1052A00000F07CFA002020704846BEE72DE9F04768
:1052B00005460F4614464FF000090CB9BDE8F087CB
:1052C0001F2D04DDFF2D02D02A202070F6E717B92C
:1052D0000C202070F2E7AE480078002802DD122092
:1052E0002070EBE700F056FA8146FF2D03D1A94864
:1052F000006890F82050A84850F825602EB948461C
:1053000000F04CFA43202070D8E7012E05D1484622
:1053100000F044FA43202070D0E73846FFF7C0FC85
:105320008046B8F10F0F05DD484600F037FA4120FE
:105330002070C3E7394606F13C00FFF7A3FC48465E
:1053400000F02CFA0020207000BFB7E770B50546CA
:1053500000261F2D01DB2A2070BD00F01BFA064637
:105360008D4850F8254024B9304600F017FA462001
:10537000F2E7012C04D1304600F010FA4320EBE7AD
:10538000A07F10F0080F2DD0A07F20F00800A0779C
:10539000A07F10BBA08BE0B904F12204A0787F4964
:1053A000097840EA01007D49087020787C49085C52
:1053B000617840EA010014F82219794A50543046C5
:1053C00000F0ECF977480078012809D1FFF714FBC9
:1053D00006E0304600F0E2F902E0304600F0DEF987
:1053E0000020B9E7304600F0D9F94420B4E72DE9B0
:1053F000F04706460C464FF0000A1F2E04DDFF2E34
:1054000002D02A20BDE8F0870CB90920FAE7002075
:105410002060606000F0BEF98246FF2E03D15D4837
:10542000006890F820605C4850F8265025B9504636
:1054300000F0B4F94320E5E7012D04D1504600F017
:10544000ADF94320DEE7287C10F0010F04D150466F
:1054500000F0A4F94520D5E70027D5F80C90D5F841
:105460000880504600F09AF900E07F1C58F8041BB1
:105470000029FAD0B8002060A9EB07008000606026
:105480000020BFE72DE9F04105464FF000081F2D31
:1054900002D14720BDE8F0811F2D03DBFF2D01D095
:1054A0002A20F7E700F076F98046FF2D05D139482C
:1054B000006890F82050012608E03648006890F80F
:1054C0002000A84201D1012600E00026324850F811
:1054D000254024B9404600F061F94820DAE7012C64
:1054E00004D1404600F05AF94320D3E794F82270E3
:1054F0002B48C05D94F8231088432949C8550846B5
:10550000C05D30B994F824102448007888432349BA
:105510000870A07F40F00800A077404600F03EF9F8
:10552000012E01D1FFF768FA0020B3E72DE9F04121
:1055300004460E4600271F2C04DDFF2C02D02A2033
:10554000BDE8F0810EB90920FAE700F023F907461B
:10555000FF2C03D10F48006890F820400E4850F807
:10556000245025B9384600F019F92920E8E7012D23
:1055700004D1384600F012F94320E1E74C222946D5
:105580003046FFF775FB384600F008F90020D7E7F2
:10559000CDC10020DCC10020E8C90020D1C100201D
:1055A000D2C10020D6C1002070B505460026734840
:1055B0000078002800DD70BD002D23DD00F0EAF842
:1055C00006466F48006890F822406E48005D6C49BE
:1055D000096891F8231088436A4908550846005D18
:1055E00040B96748006890F82410674800788843FD
:1055F00065490870624800688583304600F0CEF83F
:10560000FFF7FAF900BFD6E72DE9F04780460D46CF
:1056100016461C4659480078002802DD5520BDE892
:10562000F087B8F1000F04D11DB916B90CB9542098
:10563000F5E73B2D01DD5120F1E73B2E01DD522046
:10564000EDE7B4F57A7F01DB5320E8E74FF47A7099
:1056500060434FF47A71B0FBF1F14FF4616008FBE5
:1056600000F0C5EB051200EB8200304400EB400275
:10567000C2EBC01001EBC0074FEA1749BFB2384672
:10568000FFF792FF0BE04FF40040FFF78DFF4FF460
:105690000040FFF789FFA9F101001FFA80F9B9F175
:1056A000000FF0DC0020BAE770B5054600261F2D7C
:1056B00001DB2A2070BD00F06DF80646334850F833
:1056C000254024B9304600F069F84320F2E7012C68
:1056D00004D1304600F062F84320EBE7A08B20B9FC
:1056E000304600F05BF85020E4E70020A083A07F64
:1056F00010F0370F06D0A07F20F03700A0770120F0
:10570000E07701E00020E077A07F10F0080F18D1CB
:1057100004F12204A0781C49097840EA01001A49E2
:10572000087020781749085C617840EA010014F895
:105730002219144A5054304600F030F8FFF75CF953
:1057400002E0304600F02AF80020B3E770B50025EB
:1057500000F020F805460E480468284600F01EF8C0
:10576000204670BD70B50446002500F013F80546CC
:1057700007480460284600F011F870BDCDC1002034
:10578000DCC10020D2C10020D1C10020E8C9002026
:10579000F0C10020EFF3108072B6704780F31088DC
:1057A00070471D484FF0FF010170002080F3098809
:1057B0001A48012101701A484FF08051016062B609
:1057C000FEE717484FF080510160704714484FF0D2
:1057D00080510160704772B6EFF3098028B120381C
:1057E00080E8F00F0F490968086000B50E4880474F
:1057F0005DF804EB0D480E490A78027009480D491E
:105800000A680260106890E8F00F203080F3098881
:105810004EF0040E62B6704722ED00E0D6C10020C3
:1058200004ED00E0DCC10020DB460002CFC1002017
:10583000D0C10020E4C10020704700000FB404492B
:1058400010B503AA029800F0FDF910BC5DF814FB36
:1058500028C0002070B5044685690068C10601D5DE
:10586000302600E02026C00708D070BDD4E9012111
:1058700030469047206A00F1010020626D1EF5D588
:1058800070BD70B5044685690078C00708D170BD49
:10589000D4E9012120209047206A00F10100206214
:1058A0006D1EF5D570BD70B50C460546012A05D0B4
:1058B0002878800600D5EA69002302E0012305E08C
:1058C0005B1C934202D2E05C0028F9D1A869E6187B
:1058D000C01AA861286A184428622846FFF7BAFF50
:1058E00004E0D5E9012114F8010B9047B442F8D344
:1058F0002846FFF7C6FF70BD2DE9F041064600249B
:1059000010687529314616A511D0AFF30080002824
:1059100003DAC0F1000013A507E031688A0701D55A
:1059200011A502E0490704D510A5012401E0AFF359
:10593000008000210A2306F1240707E0B0FBF3F200
:1059400003FB1200303078541046491C0028F5D172
:1059500023462A463046BDE8F04100F001B9000078
:10596000000000002D0000002B00000020000000BF
:1059700070B504460D4621461068AFF300802188BB
:10598000090502D5104A7A4402E00F4A7A440E32E1
:10599000002104F1240307E000F00F064FEA101085
:1059A000965D5E5401F101010028F5D1034620788F
:1059B000000704D5702D02D009B111320223204610
:1059C000BDE8704000F0CCB8E80E00002DE9F05FB3
:1059D000894604464FF0000ADFF878B1FB44C0F86E
:1059E00020A02046E1688847002875D0252806D0E9
:1059F000D4E901219047206A401C2062F1E700268B
:105A00005F462046E16888472028054608DB312D9F
:105A100006D207EB050010F8200C08B10643F0E7AA
:105A2000B00701D526F00406C4F81CA00027C4F86E
:105A300018A02A2D09D0284600F062F938B304EBEB
:105A40008708303DC8F8185019E059F8041B204663
:105A500004EB87029161E1688847012F054618D160
:105A6000E069002820DA26F020061DE0D8F81800AA
:105A700000EB800005EB40003038C8F818002046E5
:105A8000E1688847054600F03BF90028EED1012F78
:105A90000AD02E2D08D12046E16888477F1C054694
:105AA000022F46F02006C4DBA069002803DA40423A
:105AB00046F00106A061F00701D026F010066C2D1B
:105AC0000BD0682D09D04C2D39D06A2D35D0742DCE
:105AD00035D07A2D33D016E038E0E1682F462046E5
